{
  "_format": "hh-sol-artifact-1",
  "contractName": "Swapper",
  "sourceName": "contracts/swap/Swapper.sol",
  "abi": [
    {
      "inputs": [
        {
          "internalType": "address",
          "name": "_router",
          "type": "address"
        },
        {
          "internalType": "uint256",
          "name": "_swapETHToTokensFee",
          "type": "uint256"
        }
      ],
      "stateMutability": "nonpayable",
      "type": "constructor"
    },
    {
      "anonymous": false,
      "inputs": [
        {
          "indexed": true,
          "internalType": "address",
          "name": "previousOwner",
          "type": "address"
        },
        {
          "indexed": true,
          "internalType": "address",
          "name": "newOwner",
          "type": "address"
        }
      ],
      "name": "OwnershipTransferred",
      "type": "event"
    },
    {
      "inputs": [],
      "name": "contractAddress",
      "outputs": [
        {
          "internalType": "address",
          "name": "",
          "type": "address"
        }
      ],
      "stateMutability": "view",
      "type": "function"
    },
    {
      "inputs": [
        {
          "internalType": "address",
          "name": "token",
          "type": "address"
        },
        {
          "internalType": "address",
          "name": "pair",
          "type": "address"
        },
        {
          "internalType": "uint256",
          "name": "amountIn",
          "type": "uint256"
        }
      ],
      "name": "getTokenPrice",
      "outputs": [
        {
          "internalType": "uint256[]",
          "name": "",
          "type": "uint256[]"
        }
      ],
      "stateMutability": "view",
      "type": "function"
    },
    {
      "inputs": [],
      "name": "owner",
      "outputs": [
        {
          "internalType": "address",
          "name": "",
          "type": "address"
        }
      ],
      "stateMutability": "view",
      "type": "function"
    },
    {
      "inputs": [],
      "name": "renounceOwnership",
      "outputs": [],
      "stateMutability": "nonpayable",
      "type": "function"
    },
    {
      "inputs": [
        {
          "internalType": "uint256",
          "name": "_swapETHToTokensFee",
          "type": "uint256"
        }
      ],
      "name": "setFee",
      "outputs": [],
      "stateMutability": "nonpayable",
      "type": "function"
    },
    {
      "inputs": [
        {
          "internalType": "address",
          "name": "_router",
          "type": "address"
        }
      ],
      "name": "setRouterAddress",
      "outputs": [],
      "stateMutability": "nonpayable",
      "type": "function"
    },
    {
      "inputs": [],
      "name": "swapETHToTokensFee",
      "outputs": [
        {
          "internalType": "uint256",
          "name": "",
          "type": "uint256"
        }
      ],
      "stateMutability": "view",
      "type": "function"
    },
    {
      "inputs": [
        {
          "internalType": "address",
          "name": "tokenToSwap",
          "type": "address"
        },
        {
          "internalType": "uint256",
          "name": "amountOutMin",
          "type": "uint256"
        }
      ],
      "name": "swapExactETHForTokens",
      "outputs": [],
      "stateMutability": "payable",
      "type": "function"
    },
    {
      "inputs": [
        {
          "internalType": "address",
          "name": "tokenToSwap",
          "type": "address"
        },
        {
          "internalType": "uint256",
          "name": "amountOutMin",
          "type": "uint256"
        }
      ],
      "name": "swapExactETHForTokensSupportingFeeOnTransferTokens",
      "outputs": [],
      "stateMutability": "payable",
      "type": "function"
    },
    {
      "inputs": [
        {
          "internalType": "address",
          "name": "token",
          "type": "address"
        },
        {
          "internalType": "uint256",
          "name": "amountIn",
          "type": "uint256"
        },
        {
          "internalType": "uint256",
          "name": "amountOutMin",
          "type": "uint256"
        }
      ],
      "name": "swapExactTokensForETH",
      "outputs": [],
      "stateMutability": "nonpayable",
      "type": "function"
    },
    {
      "inputs": [
        {
          "internalType": "address",
          "name": "token",
          "type": "address"
        },
        {
          "internalType": "uint256",
          "name": "amountIn",
          "type": "uint256"
        },
        {
          "internalType": "uint256",
          "name": "amountOutMin",
          "type": "uint256"
        }
      ],
      "name": "swapExactTokensForETHSupportingFeeOnTransferTokens",
      "outputs": [],
      "stateMutability": "nonpayable",
      "type": "function"
    },
    {
      "inputs": [
        {
          "internalType": "address",
          "name": "token",
          "type": "address"
        },
        {
          "internalType": "address",
          "name": "tokenToSwap",
          "type": "address"
        },
        {
          "internalType": "uint256",
          "name": "amountIn",
          "type": "uint256"
        },
        {
          "internalType": "uint256",
          "name": "amountOutMin",
          "type": "uint256"
        }
      ],
      "name": "swapExactTokensForTokens",
      "outputs": [],
      "stateMutability": "nonpayable",
      "type": "function"
    },
    {
      "inputs": [
        {
          "internalType": "address",
          "name": "token",
          "type": "address"
        },
        {
          "internalType": "address",
          "name": "tokenToSwap",
          "type": "address"
        },
        {
          "internalType": "uint256",
          "name": "amountIn",
          "type": "uint256"
        },
        {
          "internalType": "uint256",
          "name": "amountOutMin",
          "type": "uint256"
        }
      ],
      "name": "swapExactTokensForTokensSupportingFeeOnTransferTokens",
      "outputs": [],
      "stateMutability": "nonpayable",
      "type": "function"
    },
    {
      "inputs": [
        {
          "internalType": "address",
          "name": "newOwner",
          "type": "address"
        }
      ],
      "name": "transferOwnership",
      "outputs": [],
      "stateMutability": "nonpayable",
      "type": "function"
    },
    {
      "inputs": [],
      "name": "wethAddress",
      "outputs": [
        {
          "internalType": "address",
          "name": "",
          "type": "address"
        }
      ],
      "stateMutability": "view",
      "type": "function"
    },
    {
      "inputs": [],
      "name": "withdraw",
      "outputs": [],
      "stateMutability": "nonpayable",
      "type": "function"
    }
  ],
  "bytecode": "0x608060405234801561001057600080fd5b5060405161189238038061189283398101604081905261002f916100b1565b61003833610061565b600180546001600160a01b0319166001600160a01b0393909316929092179091556002556100eb565b600080546001600160a01b038381166001600160a01b0319831681178455604051919092169283917f8be0079c531659141344cd1fd0a4f28419497f9722a3daafe3b4186f6b6457e09190a35050565b600080604083850312156100c457600080fd5b82516001600160a01b03811681146100db57600080fd5b6020939093015192949293505050565b611798806100fa6000396000f3fe6080604052600436106100f35760003560e01c80638da5cb5b1161008a578063c038847a11610059578063c038847a14610295578063c48829bb146102b5578063f2fde38b146102d5578063f6b4dfb4146102f557600080fd5b80638da5cb5b146102315780639088c1071461024f578063b79c48e51461026f578063bf06fa141461028257600080fd5b8063564eb91c116100c6578063564eb91c146101af57806369fe0e2d146101dc578063715018a6146101fc57806389fe039b1461021157600080fd5b806308fd04b7146100f85780633ccfd60b1461012157806341cb87fc146101385780634f0e0ef314610182575b600080fd5b34801561010457600080fd5b5061010e60025481565b6040519081526020015b60405180910390f35b34801561012d57600080fd5b50610136610308565b005b34801561014457600080fd5b50610136610153366004611374565b6001805473ffffffffffffffffffffffffffffffffffffffff19166001600160a01b0392909216919091179055565b34801561018e57600080fd5b506101976103a4565b6040516001600160a01b039091168152602001610118565b3480156101bb57600080fd5b506101cf6101ca366004611398565b610426565b60405161011891906113d9565b3480156101e857600080fd5b506101366101f736600461141d565b600255565b34801561020857600080fd5b50610136610548565b34801561021d57600080fd5b5061013661022c366004611436565b6105ae565b34801561023d57600080fd5b506000546001600160a01b0316610197565b34801561025b57600080fd5b5061013661026a36600461147c565b6107d5565b61013661027d3660046114b1565b610a41565b6101366102903660046114b1565b610c10565b3480156102a157600080fd5b506101366102b036600461147c565b610dba565b3480156102c157600080fd5b506101366102d0366004611436565b611044565b3480156102e157600080fd5b506101366102f0366004611374565b611227565b34801561030157600080fd5b5030610197565b6000546001600160a01b031633146103675760405162461bcd60e51b815260206004820181905260248201527f4f776e61626c653a2063616c6c6572206973206e6f7420746865206f776e657260448201526064015b60405180910390fd5b600080546040516001600160a01b03909116914780156108fc02929091818181858888f193505050501580156103a1573d6000803e3d6000fd5b50565b600154604080516315ab88c960e31b815290516000926001600160a01b03169163ad5c4648916004808301926020929190829003018186803b1580156103e957600080fd5b505afa1580156103fd573d6000803e3d6000fd5b505050506040513d601f19601f8201168201806040525081019061042191906114dd565b905090565b60408051600280825260608083018452926000929190602083019080368337019050509050848160008151811061045f5761045f611510565b60200260200101906001600160a01b031690816001600160a01b031681525050838160018151811061049357610493611510565b6001600160a01b0392831660209182029290920101526001546040517fd06ca61f00000000000000000000000000000000000000000000000000000000815291169063d06ca61f906104eb908690859060040161156a565b60006040518083038186803b15801561050357600080fd5b505afa158015610517573d6000803e3d6000fd5b505050506040513d6000823e601f3d908101601f1916820160405261053f919081019061158b565b95945050505050565b6000546001600160a01b031633146105a25760405162461bcd60e51b815260206004820181905260248201527f4f776e61626c653a2063616c6c6572206973206e6f7420746865206f776e6572604482015260640161035e565b6105ac6000611302565b565b60408051600280825260608201835260009260208301908036833701905050905084816000815181106105e3576105e3611510565b60200260200101906001600160a01b031690816001600160a01b031681525050838160018151811061061757610617611510565b6001600160a01b0392831660209182029290920101526040516323b872dd60e01b815233600482015230602482015260448101859052908616906323b872dd90606401602060405180830381600087803b15801561067457600080fd5b505af1158015610688573d6000803e3d6000fd5b505050506040513d601f19601f820116820180604052508101906106ac9190611649565b5060015460405163095ea7b360e01b81526001600160a01b039182166004820152602481018590529086169063095ea7b390604401602060405180830381600087803b1580156106fb57600080fd5b505af115801561070f573d6000803e3d6000fd5b505050506040513d601f19601f820116820180604052508101906107339190611649565b506001546001600160a01b03166338ed173984848433610757426315752a00611681565b6040518663ffffffff1660e01b8152600401610777959493929190611699565b600060405180830381600087803b15801561079157600080fd5b505af11580156107a5573d6000803e3d6000fd5b505050506040513d6000823e601f3d908101601f191682016040526107cd919081019061158b565b505050505050565b604080516002808252606082018352600092602083019080368337019050509050838160008151811061080a5761080a611510565b6001600160a01b03928316602091820292909201810191909152600154604080516315ab88c960e31b81529051919093169263ad5c4648926004808301939192829003018186803b15801561085e57600080fd5b505afa158015610872573d6000803e3d6000fd5b505050506040513d601f19601f8201168201806040525081019061089691906114dd565b816001815181106108a9576108a9611510565b6001600160a01b0392831660209182029290920101526040516323b872dd60e01b815233600482015230602482015260448101859052908516906323b872dd90606401602060405180830381600087803b15801561090657600080fd5b505af115801561091a573d6000803e3d6000fd5b505050506040513d601f19601f8201168201806040525081019061093e9190611649565b5060015460405163095ea7b360e01b81526001600160a01b039182166004820152602481018590529085169063095ea7b390604401602060405180830381600087803b15801561098d57600080fd5b505af11580156109a1573d6000803e3d6000fd5b505050506040513d601f19601f820116820180604052508101906109c59190611649565b506001546001600160a01b031663791ac947848484336109e9426315752a00611681565b6040518663ffffffff1660e01b8152600401610a09959493929190611699565b600060405180830381600087803b158015610a2357600080fd5b505af1158015610a37573d6000803e3d6000fd5b5050505050505050565b6040805160028082526060820183526000926020830190803683375050600154604080516315ab88c960e31b815290519394506001600160a01b039091169263ad5c464892506004808301926020929190829003018186803b158015610aa657600080fd5b505afa158015610aba573d6000803e3d6000fd5b505050506040513d601f19601f82011682018060405250810190610ade91906114dd565b81600081518110610af157610af1611510565b60200260200101906001600160a01b031690816001600160a01b0316815250508281600181518110610b2557610b25611510565b60200260200101906001600160a01b031690816001600160a01b03168152505060006103e86002546103e8610b5a91906116d5565b610b6490346116ec565b610b6e919061170b565b6001549091506001600160a01b0316637ff36ab582858533610b94426315752a00611681565b6040518663ffffffff1660e01b8152600401610bb3949392919061172d565b6000604051808303818588803b158015610bcc57600080fd5b505af1158015610be0573d6000803e3d6000fd5b50505050506040513d6000823e601f3d908101601f19168201604052610c09919081019061158b565b5050505050565b6040805160028082526060820183526000926020830190803683375050600154604080516315ab88c960e31b815290519394506001600160a01b039091169263ad5c464892506004808301926020929190829003018186803b158015610c7557600080fd5b505afa158015610c89573d6000803e3d6000fd5b505050506040513d601f19601f82011682018060405250810190610cad91906114dd565b81600081518110610cc057610cc0611510565b60200260200101906001600160a01b031690816001600160a01b0316815250508281600181518110610cf457610cf4611510565b60200260200101906001600160a01b031690816001600160a01b03168152505060006103e86002546103e8610d2991906116d5565b610d3390346116ec565b610d3d919061170b565b6001549091506001600160a01b031663b6f9de9582858533610d63426315752a00611681565b6040518663ffffffff1660e01b8152600401610d82949392919061172d565b6000604051808303818588803b158015610d9b57600080fd5b505af1158015610daf573d6000803e3d6000fd5b505050505050505050565b6040805160028082526060820183526000926020830190803683370190505090508381600081518110610def57610def611510565b6001600160a01b03928316602091820292909201810191909152600154604080516315ab88c960e31b81529051919093169263ad5c4648926004808301939192829003018186803b158015610e4357600080fd5b505afa158015610e57573d6000803e3d6000fd5b505050506040513d601f19601f82011682018060405250810190610e7b91906114dd565b81600181518110610e8e57610e8e611510565b6001600160a01b0392831660209182029290920101526040516323b872dd60e01b815233600482015230602482015260448101859052908516906323b872dd90606401602060405180830381600087803b158015610eeb57600080fd5b505af1158015610eff573d6000803e3d6000fd5b505050506040513d601f19601f82011682018060405250810190610f239190611649565b5060015460405163095ea7b360e01b81526001600160a01b039182166004820152602481018590529085169063095ea7b390604401602060405180830381600087803b158015610f7257600080fd5b505af1158015610f86573d6000803e3d6000fd5b505050506040513d601f19601f82011682018060405250810190610faa9190611649565b506001546001600160a01b03166318cbafe584848433610fce426315752a00611681565b6040518663ffffffff1660e01b8152600401610fee959493929190611699565b600060405180830381600087803b15801561100857600080fd5b505af115801561101c573d6000803e3d6000fd5b505050506040513d6000823e601f3d908101601f19168201604052610c09919081019061158b565b604080516002808252606082018352600092602083019080368337019050509050848160008151811061107957611079611510565b60200260200101906001600160a01b031690816001600160a01b03168152505083816001815181106110ad576110ad611510565b6001600160a01b0392831660209182029290920101526040516323b872dd60e01b815233600482015230602482015260448101859052908616906323b872dd90606401602060405180830381600087803b15801561110a57600080fd5b505af115801561111e573d6000803e3d6000fd5b505050506040513d601f19601f820116820180604052508101906111429190611649565b5060015460405163095ea7b360e01b81526001600160a01b039182166004820152602481018590529086169063095ea7b390604401602060405180830381600087803b15801561119157600080fd5b505af11580156111a5573d6000803e3d6000fd5b505050506040513d601f19601f820116820180604052508101906111c99190611649565b506001546001600160a01b0316635c11d795848484336111ed426315752a00611681565b6040518663ffffffff1660e01b815260040161120d959493929190611699565b600060405180830381600087803b158015610d9b57600080fd5b6000546001600160a01b031633146112815760405162461bcd60e51b815260206004820181905260248201527f4f776e61626c653a2063616c6c6572206973206e6f7420746865206f776e6572604482015260640161035e565b6001600160a01b0381166112fd5760405162461bcd60e51b815260206004820152602660248201527f4f776e61626c653a206e6577206f776e657220697320746865207a65726f206160448201527f6464726573730000000000000000000000000000000000000000000000000000606482015260840161035e565b6103a1815b600080546001600160a01b0383811673ffffffffffffffffffffffffffffffffffffffff19831681178455604051919092169283917f8be0079c531659141344cd1fd0a4f28419497f9722a3daafe3b4186f6b6457e09190a35050565b6001600160a01b03811681146103a157600080fd5b60006020828403121561138657600080fd5b81356113918161135f565b9392505050565b6000806000606084860312156113ad57600080fd5b83356113b88161135f565b925060208401356113c88161135f565b929592945050506040919091013590565b6020808252825182820181905260009190848201906040850190845b81811015611411578351835292840192918401916001016113f5565b50909695505050505050565b60006020828403121561142f57600080fd5b5035919050565b6000806000806080858703121561144c57600080fd5b84356114578161135f565b935060208501356114678161135f565b93969395505050506040820135916060013590565b60008060006060848603121561149157600080fd5b833561149c8161135f565b95602085013595506040909401359392505050565b600080604083850312156114c457600080fd5b82356114cf8161135f565b946020939093013593505050565b6000602082840312156114ef57600080fd5b81516113918161135f565b634e487b7160e01b600052604160045260246000fd5b634e487b7160e01b600052603260045260246000fd5b600081518084526020808501945080840160005b8381101561155f5781516001600160a01b03168752958201959082019060010161153a565b509495945050505050565b8281526040602082015260006115836040830184611526565b949350505050565b6000602080838503121561159e57600080fd5b825167ffffffffffffffff808211156115b657600080fd5b818501915085601f8301126115ca57600080fd5b8151818111156115dc576115dc6114fa565b8060051b604051601f19603f83011681018181108582111715611601576116016114fa565b60405291825284820192508381018501918883111561161f57600080fd5b938501935b8285101561163d57845184529385019392850192611624565b98975050505050505050565b60006020828403121561165b57600080fd5b8151801515811461139157600080fd5b634e487b7160e01b600052601160045260246000fd5b600082198211156116945761169461166b565b500190565b85815284602082015260a0604082015260006116b860a0830186611526565b6001600160a01b0394909416606083015250608001529392505050565b6000828210156116e7576116e761166b565b500390565b60008160001904831182151516156117065761170661166b565b500290565b60008261172857634e487b7160e01b600052601260045260246000fd5b500490565b8481526080602082015260006117466080830186611526565b6001600160a01b0394909416604083015250606001529291505056fea264697066735822122073ced023de71f8d7654ff52bca8349c78e456a5eb15812c2897b65756d1fd2bc64736f6c63430008090033",
  "linkReferences": {},
  "deployedLinkReferences": {}
}