{
  "_format": "hh-sol-artifact-1",
  "contractName": "FuzzyPunky",
  "sourceName": "contracts/tokens/ERC20/mint1.sol",
  "abi": [
    {
      "inputs": [],
      "stateMutability": "nonpayable",
      "type": "constructor"
    },
    {
      "anonymous": false,
      "inputs": [
        {
          "indexed": true,
          "internalType": "address",
          "name": "owner",
          "type": "address"
        },
        {
          "indexed": true,
          "internalType": "address",
          "name": "spender",
          "type": "address"
        },
        {
          "indexed": false,
          "internalType": "uint256",
          "name": "value",
          "type": "uint256"
        }
      ],
      "name": "Approval",
      "type": "event"
    },
    {
      "anonymous": false,
      "inputs": [
        {
          "indexed": true,
          "internalType": "address",
          "name": "previousOwner",
          "type": "address"
        },
        {
          "indexed": true,
          "internalType": "address",
          "name": "newOwner",
          "type": "address"
        }
      ],
      "name": "OwnershipTransferred",
      "type": "event"
    },
    {
      "anonymous": false,
      "inputs": [
        {
          "indexed": false,
          "internalType": "uint256",
          "name": "tokensSwapped",
          "type": "uint256"
        },
        {
          "indexed": false,
          "internalType": "uint256",
          "name": "ethReceived",
          "type": "uint256"
        },
        {
          "indexed": false,
          "internalType": "uint256",
          "name": "tokensIntoLiquidity",
          "type": "uint256"
        }
      ],
      "name": "SwapAndLiquify",
      "type": "event"
    },
    {
      "anonymous": false,
      "inputs": [
        {
          "indexed": true,
          "internalType": "address",
          "name": "from",
          "type": "address"
        },
        {
          "indexed": true,
          "internalType": "address",
          "name": "to",
          "type": "address"
        },
        {
          "indexed": false,
          "internalType": "uint256",
          "name": "value",
          "type": "uint256"
        }
      ],
      "name": "Transfer",
      "type": "event"
    },
    {
      "inputs": [],
      "name": "_buyCooldown",
      "outputs": [
        {
          "internalType": "uint256",
          "name": "",
          "type": "uint256"
        }
      ],
      "stateMutability": "view",
      "type": "function"
    },
    {
      "inputs": [],
      "name": "_liquidityFee",
      "outputs": [
        {
          "internalType": "uint256",
          "name": "",
          "type": "uint256"
        }
      ],
      "stateMutability": "view",
      "type": "function"
    },
    {
      "inputs": [],
      "name": "_marketingFee",
      "outputs": [
        {
          "internalType": "uint256",
          "name": "",
          "type": "uint256"
        }
      ],
      "stateMutability": "view",
      "type": "function"
    },
    {
      "inputs": [],
      "name": "_maxTxAmount",
      "outputs": [
        {
          "internalType": "uint256",
          "name": "",
          "type": "uint256"
        }
      ],
      "stateMutability": "view",
      "type": "function"
    },
    {
      "inputs": [
        {
          "internalType": "address",
          "name": "owner",
          "type": "address"
        },
        {
          "internalType": "address",
          "name": "spender",
          "type": "address"
        }
      ],
      "name": "allowance",
      "outputs": [
        {
          "internalType": "uint256",
          "name": "",
          "type": "uint256"
        }
      ],
      "stateMutability": "view",
      "type": "function"
    },
    {
      "inputs": [
        {
          "internalType": "address",
          "name": "spender",
          "type": "address"
        },
        {
          "internalType": "uint256",
          "name": "amount",
          "type": "uint256"
        }
      ],
      "name": "approve",
      "outputs": [
        {
          "internalType": "bool",
          "name": "",
          "type": "bool"
        }
      ],
      "stateMutability": "nonpayable",
      "type": "function"
    },
    {
      "inputs": [
        {
          "internalType": "address",
          "name": "account",
          "type": "address"
        }
      ],
      "name": "balanceOf",
      "outputs": [
        {
          "internalType": "uint256",
          "name": "",
          "type": "uint256"
        }
      ],
      "stateMutability": "view",
      "type": "function"
    },
    {
      "inputs": [],
      "name": "decimals",
      "outputs": [
        {
          "internalType": "uint8",
          "name": "",
          "type": "uint8"
        }
      ],
      "stateMutability": "pure",
      "type": "function"
    },
    {
      "inputs": [
        {
          "internalType": "address",
          "name": "spender",
          "type": "address"
        },
        {
          "internalType": "uint256",
          "name": "subtractedValue",
          "type": "uint256"
        }
      ],
      "name": "decreaseAllowance",
      "outputs": [
        {
          "internalType": "bool",
          "name": "",
          "type": "bool"
        }
      ],
      "stateMutability": "nonpayable",
      "type": "function"
    },
    {
      "inputs": [
        {
          "internalType": "address",
          "name": "account",
          "type": "address"
        }
      ],
      "name": "excludeFromFee",
      "outputs": [],
      "stateMutability": "nonpayable",
      "type": "function"
    },
    {
      "inputs": [
        {
          "internalType": "address",
          "name": "account",
          "type": "address"
        }
      ],
      "name": "includeInFee",
      "outputs": [],
      "stateMutability": "nonpayable",
      "type": "function"
    },
    {
      "inputs": [
        {
          "internalType": "address",
          "name": "spender",
          "type": "address"
        },
        {
          "internalType": "uint256",
          "name": "addedValue",
          "type": "uint256"
        }
      ],
      "name": "increaseAllowance",
      "outputs": [
        {
          "internalType": "bool",
          "name": "",
          "type": "bool"
        }
      ],
      "stateMutability": "nonpayable",
      "type": "function"
    },
    {
      "inputs": [
        {
          "internalType": "address",
          "name": "account",
          "type": "address"
        }
      ],
      "name": "isExcludedFromFee",
      "outputs": [
        {
          "internalType": "bool",
          "name": "",
          "type": "bool"
        }
      ],
      "stateMutability": "view",
      "type": "function"
    },
    {
      "inputs": [],
      "name": "name",
      "outputs": [
        {
          "internalType": "string",
          "name": "",
          "type": "string"
        }
      ],
      "stateMutability": "pure",
      "type": "function"
    },
    {
      "inputs": [],
      "name": "owner",
      "outputs": [
        {
          "internalType": "address",
          "name": "",
          "type": "address"
        }
      ],
      "stateMutability": "view",
      "type": "function"
    },
    {
      "inputs": [],
      "name": "renounceOwnership",
      "outputs": [],
      "stateMutability": "nonpayable",
      "type": "function"
    },
    {
      "inputs": [],
      "name": "symbol",
      "outputs": [
        {
          "internalType": "string",
          "name": "",
          "type": "string"
        }
      ],
      "stateMutability": "pure",
      "type": "function"
    },
    {
      "inputs": [],
      "name": "totalSupply",
      "outputs": [
        {
          "internalType": "uint256",
          "name": "",
          "type": "uint256"
        }
      ],
      "stateMutability": "view",
      "type": "function"
    },
    {
      "inputs": [
        {
          "internalType": "address",
          "name": "recipient",
          "type": "address"
        },
        {
          "internalType": "uint256",
          "name": "amount",
          "type": "uint256"
        }
      ],
      "name": "transfer",
      "outputs": [
        {
          "internalType": "bool",
          "name": "",
          "type": "bool"
        }
      ],
      "stateMutability": "nonpayable",
      "type": "function"
    },
    {
      "inputs": [
        {
          "internalType": "address",
          "name": "sender",
          "type": "address"
        },
        {
          "internalType": "address",
          "name": "recipient",
          "type": "address"
        },
        {
          "internalType": "uint256",
          "name": "amount",
          "type": "uint256"
        }
      ],
      "name": "transferFrom",
      "outputs": [
        {
          "internalType": "bool",
          "name": "",
          "type": "bool"
        }
      ],
      "stateMutability": "nonpayable",
      "type": "function"
    },
    {
      "inputs": [
        {
          "internalType": "address",
          "name": "newOwner",
          "type": "address"
        }
      ],
      "name": "transferOwnership",
      "outputs": [],
      "stateMutability": "nonpayable",
      "type": "function"
    },
    {
      "inputs": [],
      "name": "uniswapV2Pair",
      "outputs": [
        {
          "internalType": "address",
          "name": "",
          "type": "address"
        }
      ],
      "stateMutability": "view",
      "type": "function"
    },
    {
      "inputs": [],
      "name": "uniswapV2Router",
      "outputs": [
        {
          "internalType": "contract IUniswapV2Router02",
          "name": "",
          "type": "address"
        }
      ],
      "stateMutability": "view",
      "type": "function"
    },
    {
      "stateMutability": "payable",
      "type": "receive"
    }
  ],
  "bytecode": "0x608060405264e8d4a5100060068190556007556009600881905560019055600a80546001600160a01b03191673ccb0a10fdfd6b9f388d314e07614307aa176cc6d1790556000600b553480156200005557600080fd5b50600080546001600160a01b031916339081178255604051909182917f8be0079c531659141344cd1fd0a4f28419497f9722a3daafe3b4186f6b6457e0908290a35060065433600090815260036020908152604080832093909355825163c45a015560e01b815292517310ed43c718714eb63d5aa57b78b54704e256024e93849263c45a015592600480840193829003018186803b158015620000f757600080fd5b505afa1580156200010c573d6000803e3d6000fd5b505050506040513d601f19601f8201168201806040525081019062000132919062000337565b6001600160a01b031663c9c6539630846001600160a01b031663ad5c46486040518163ffffffff1660e01b815260040160206040518083038186803b1580156200017b57600080fd5b505afa15801562000190573d6000803e3d6000fd5b505050506040513d601f19601f82011682018060405250810190620001b6919062000337565b6040516001600160e01b031960e085901b1681526001600160a01b03928316600482015291166024820152604401602060405180830381600087803b158015620001ff57600080fd5b505af115801562000214573d6000803e3d6000fd5b505050506040513d601f19601f820116820180604052508101906200023a919062000337565b600180546001600160a01b038086166001600160a01b0319928316178355600280549185169190921617905590915060056000620002806000546001600160a01b031690565b6001600160a01b03908116825260208083019390935260409182016000908120805495151560ff199687161790553081526005909352818320805485166001908117909155600a54909116835291208054909216179055620002df3390565b6001600160a01b031660006001600160a01b03167fddf252ad1be2c89b69c2b068fc378daa952ba7f163c4a11628f55a4df523b3ef6006546040516200032791815260200190565b60405180910390a3505062000369565b6000602082840312156200034a57600080fd5b81516001600160a01b03811681146200036257600080fd5b9392505050565b61147e80620003796000396000f3fe6080604052600436106101845760003560e01c80636bc87c3a116100d657806395d89b411161007f578063dd62ed3e11610059578063dd62ed3e1461048d578063ea2f0b37146104d3578063f2fde38b146104f357600080fd5b806395d89b4114610407578063a457c2d71461044d578063a9059cbb1461046d57600080fd5b80637d1db4a5116100b05780637d1db4a5146103bd5780638da5cb5b146103d3578063945945d3146103f157600080fd5b80636bc87c3a1461035c57806370a0823114610372578063715018a6146103a857600080fd5b806323b872dd11610138578063437823ec11610112578063437823ec146102e157806349bd5a5e146103035780635342acb41461032357600080fd5b806323b872dd14610285578063313ce567146102a557806339509351146102c157600080fd5b80631694505e116101695780631694505e1461021857806318160ddd1461025057806322976e0d1461026f57600080fd5b806306fdde0314610190578063095ea7b3146101e857600080fd5b3661018b57005b600080fd5b34801561019c57600080fd5b5060408051808201909152600b81527f46757a7a792050756e6b7900000000000000000000000000000000000000000060208201525b6040516101df91906111e7565b60405180910390f35b3480156101f457600080fd5b50610208610203366004611254565b610513565b60405190151581526020016101df565b34801561022457600080fd5b50600154610238906001600160a01b031681565b6040516001600160a01b0390911681526020016101df565b34801561025c57600080fd5b506006545b6040519081526020016101df565b34801561027b57600080fd5b5061026160085481565b34801561029157600080fd5b506102086102a0366004611280565b610529565b3480156102b157600080fd5b50604051600a81526020016101df565b3480156102cd57600080fd5b506102086102dc366004611254565b61057b565b3480156102ed57600080fd5b506103016102fc3660046112c1565b6105b2565b005b34801561030f57600080fd5b50600254610238906001600160a01b031681565b34801561032f57600080fd5b5061020861033e3660046112c1565b6001600160a01b031660009081526005602052604090205460ff1690565b34801561036857600080fd5b5061026160095481565b34801561037e57600080fd5b5061026161038d3660046112c1565b6001600160a01b031660009081526003602052604090205490565b3480156103b457600080fd5b50610301610635565b3480156103c957600080fd5b5061026160075481565b3480156103df57600080fd5b506000546001600160a01b0316610238565b3480156103fd57600080fd5b50610261600b5481565b34801561041357600080fd5b5060408051808201909152600381527f244650000000000000000000000000000000000000000000000000000000000060208201526101d2565b34801561045957600080fd5b50610208610468366004611254565b6106e6565b34801561047957600080fd5b50610208610488366004611254565b61071d565b34801561049957600080fd5b506102616104a83660046112e5565b6001600160a01b03918216600090815260046020908152604080832093909416825291909152205490565b3480156104df57600080fd5b506103016104ee3660046112c1565b61072a565b3480156104ff57600080fd5b5061030161050e3660046112c1565b6107a5565b60006105203384846108e3565b50600192915050565b6000610536848484610a3b565b6001600160a01b03841660009081526004602090815260408083203380855292529091205461057191869161056c908690611334565b6108e3565b5060019392505050565b3360008181526004602090815260408083206001600160a01b0387168452909152812054909161052091859061056c90869061134b565b6000546001600160a01b031633146106115760405162461bcd60e51b815260206004820181905260248201527f4f776e61626c653a2063616c6c6572206973206e6f7420746865206f776e657260448201526064015b60405180910390fd5b6001600160a01b03166000908152600560205260409020805460ff19166001179055565b6000546001600160a01b0316331461068f5760405162461bcd60e51b815260206004820181905260248201527f4f776e61626c653a2063616c6c6572206973206e6f7420746865206f776e65726044820152606401610608565b600080546040516001600160a01b03909116907f8be0079c531659141344cd1fd0a4f28419497f9722a3daafe3b4186f6b6457e0908390a36000805473ffffffffffffffffffffffffffffffffffffffff19169055565b3360008181526004602090815260408083206001600160a01b0387168452909152812054909161052091859061056c908690611334565b6000610520338484610a3b565b6000546001600160a01b031633146107845760405162461bcd60e51b815260206004820181905260248201527f4f776e61626c653a2063616c6c6572206973206e6f7420746865206f776e65726044820152606401610608565b6001600160a01b03166000908152600560205260409020805460ff19169055565b6000546001600160a01b031633146107ff5760405162461bcd60e51b815260206004820181905260248201527f4f776e61626c653a2063616c6c6572206973206e6f7420746865206f776e65726044820152606401610608565b6001600160a01b03811661087b5760405162461bcd60e51b815260206004820152602660248201527f4f776e61626c653a206e6577206f776e657220697320746865207a65726f206160448201527f64647265737300000000000000000000000000000000000000000000000000006064820152608401610608565b600080546040516001600160a01b03808516939216917f8be0079c531659141344cd1fd0a4f28419497f9722a3daafe3b4186f6b6457e091a36000805473ffffffffffffffffffffffffffffffffffffffff19166001600160a01b0392909216919091179055565b6001600160a01b03831661095e5760405162461bcd60e51b8152602060048201526024808201527f45524332303a20617070726f76652066726f6d20746865207a65726f2061646460448201527f72657373000000000000000000000000000000000000000000000000000000006064820152608401610608565b6001600160a01b0382166109da5760405162461bcd60e51b815260206004820152602260248201527f45524332303a20617070726f766520746f20746865207a65726f20616464726560448201527f73730000000000000000000000000000000000000000000000000000000000006064820152608401610608565b6001600160a01b0383811660008181526004602090815260408083209487168084529482529182902085905590518481527f8c5be1e5ebec7d5bd14f71427d1e84f3dd0314c0f7b2291e5b200ac8c7c3b925910160405180910390a3505050565b6001600160a01b038316610ab75760405162461bcd60e51b815260206004820152602560248201527f45524332303a207472616e736665722066726f6d20746865207a65726f20616460448201527f64726573730000000000000000000000000000000000000000000000000000006064820152608401610608565b6001600160a01b038216610b335760405162461bcd60e51b815260206004820152602360248201527f45524332303a207472616e7366657220746f20746865207a65726f206164647260448201527f65737300000000000000000000000000000000000000000000000000000000006064820152608401610608565b60008111610ba95760405162461bcd60e51b815260206004820152602960248201527f5472616e7366657220616d6f756e74206d75737420626520677265617465722060448201527f7468616e207a65726f00000000000000000000000000000000000000000000006064820152608401610608565b6000546001600160a01b03848116911614801590610bd557506000546001600160a01b03838116911614155b8015610bef57506002546001600160a01b03838116911614155b15610c955760075481610c17846001600160a01b031660009081526003602052604090205490565b610c21919061134b565b1115610c955760405162461bcd60e51b815260206004820152602860248201527f5472616e7366657220616d6f756e74206578636565647320746865206d61785460448201527f78416d6f756e742e0000000000000000000000000000000000000000000000006064820152608401610608565b6002546001600160a01b0384811691161415610d6057600b546001600160a01b0383166000908152600c60205260409020544291610cd29161134b565b10610d445760405162461bcd60e51b8152602060048201526024808201527f4d75737420776169742074696c20616674657220636f6f6f6c646f776e20746f60448201527f20627579000000000000000000000000000000000000000000000000000000006064820152608401610608565b6001600160a01b0382166000908152600c602052604090204290555b30600090815260036020526040902054633b9aca0011158015610d865750600d5460ff16155b8015610da057506002546001600160a01b03848116911614155b8015610dba57506000546001600160a01b03848116911614155b8015610dd457506000546001600160a01b03838116911614155b15610e0d57600d805460ff19166001179055306000908152600360205260408120549050610e0181610f12565b50600d805460ff191690555b6001600160a01b03831660009081526003602052604081208054839290610e35908490611334565b90915550506001600160a01b038316600090815260056020526040902054819060ff16158015610e7e57506001600160a01b03831660009081526005602052604090205460ff16155b15610e9057610e8d8285610f65565b90505b6001600160a01b03831660009081526003602052604081208054839290610eb890849061134b565b92505081905550826001600160a01b0316846001600160a01b03167fddf252ad1be2c89b69c2b068fc378daa952ba7f163c4a11628f55a4df523b3ef83604051610f0491815260200190565b60405180910390a350505050565b6000610f1d82611036565b90508015610f6157600a546040516001600160a01b039091169082156108fc029083906000818181858888f19350505050158015610f5f573d6000803e3d6000fd5b505b5050565b600080606460085485610f789190611363565b610f829190611382565b90506000606460095486610f969190611363565b610fa09190611382565b9050610fac818361134b565b3060009081526003602052604081208054909190610fcb90849061134b565b909155503090506001600160a01b0385167fddf252ad1be2c89b69c2b068fc378daa952ba7f163c4a11628f55a4df523b3ef611007848661134b565b60405190815260200160405180910390a3806110238387611334565b61102d9190611334565b95945050505050565b6040805160028082526060820183526000924792849290916020830190803683370190505090503081600081518110611071576110716113a4565b6001600160a01b03928316602091820292909201810191909152600154604080517fad5c46480000000000000000000000000000000000000000000000000000000081529051919093169263ad5c4648926004808301939192829003018186803b1580156110de57600080fd5b505afa1580156110f2573d6000803e3d6000fd5b505050506040513d601f19601f8201168201806040525081019061111691906113ba565b81600181518110611129576111296113a4565b6001600160a01b03928316602091820292909201015260015461114f91309116866108e3565b6001546040517f791ac9470000000000000000000000000000000000000000000000000000000081526001600160a01b039091169063791ac947906111a19087906000908690309042906004016113d7565b600060405180830381600087803b1580156111bb57600080fd5b505af11580156111cf573d6000803e3d6000fd5b5050505081476111df9190611334565b949350505050565b600060208083528351808285015260005b81811015611214578581018301518582016040015282016111f8565b81811115611226576000604083870101525b50601f01601f1916929092016040019392505050565b6001600160a01b038116811461125157600080fd5b50565b6000806040838503121561126757600080fd5b82356112728161123c565b946020939093013593505050565b60008060006060848603121561129557600080fd5b83356112a08161123c565b925060208401356112b08161123c565b929592945050506040919091013590565b6000602082840312156112d357600080fd5b81356112de8161123c565b9392505050565b600080604083850312156112f857600080fd5b82356113038161123c565b915060208301356113138161123c565b809150509250929050565b634e487b7160e01b600052601160045260246000fd5b6000828210156113465761134661131e565b500390565b6000821982111561135e5761135e61131e565b500190565b600081600019048311821515161561137d5761137d61131e565b500290565b60008261139f57634e487b7160e01b600052601260045260246000fd5b500490565b634e487b7160e01b600052603260045260246000fd5b6000602082840312156113cc57600080fd5b81516112de8161123c565b600060a082018783526020878185015260a0604085015281875180845260c086019150828901935060005b818110156114275784516001600160a01b031683529383019391830191600101611402565b50506001600160a01b0396909616606085015250505060800152939250505056fea26469706673582212202bbe22f2ee121a3d3945835785366315d5d1f576347009d4e7e1e1d01e59fb9064736f6c63430008090033",
  "linkReferences": {},
  "deployedLinkReferences": {}
}