{
  "_format": "hh-sol-artifact-1",
  "contractName": "SimpleToken",
  "sourceName": "contracts/tokens/ERC20/simple.sol",
  "abi": [
    {
      "inputs": [],
      "stateMutability": "nonpayable",
      "type": "constructor"
    },
    {
      "anonymous": false,
      "inputs": [
        {
          "indexed": true,
          "internalType": "address",
          "name": "owner",
          "type": "address"
        },
        {
          "indexed": true,
          "internalType": "address",
          "name": "spender",
          "type": "address"
        },
        {
          "indexed": false,
          "internalType": "uint256",
          "name": "value",
          "type": "uint256"
        }
      ],
      "name": "Approval",
      "type": "event"
    },
    {
      "anonymous": false,
      "inputs": [
        {
          "indexed": true,
          "internalType": "address",
          "name": "previousOwner",
          "type": "address"
        },
        {
          "indexed": true,
          "internalType": "address",
          "name": "newOwner",
          "type": "address"
        }
      ],
      "name": "OwnershipTransferred",
      "type": "event"
    },
    {
      "anonymous": false,
      "inputs": [
        {
          "indexed": true,
          "internalType": "address",
          "name": "from",
          "type": "address"
        },
        {
          "indexed": true,
          "internalType": "address",
          "name": "to",
          "type": "address"
        },
        {
          "indexed": false,
          "internalType": "uint256",
          "name": "value",
          "type": "uint256"
        }
      ],
      "name": "Transfer",
      "type": "event"
    },
    {
      "inputs": [
        {
          "internalType": "address",
          "name": "",
          "type": "address"
        },
        {
          "internalType": "address",
          "name": "",
          "type": "address"
        }
      ],
      "name": "_allowances",
      "outputs": [
        {
          "internalType": "uint256",
          "name": "",
          "type": "uint256"
        }
      ],
      "stateMutability": "view",
      "type": "function"
    },
    {
      "inputs": [
        {
          "internalType": "address",
          "name": "",
          "type": "address"
        }
      ],
      "name": "_balances",
      "outputs": [
        {
          "internalType": "uint256",
          "name": "",
          "type": "uint256"
        }
      ],
      "stateMutability": "view",
      "type": "function"
    },
    {
      "inputs": [],
      "name": "_decimals",
      "outputs": [
        {
          "internalType": "uint8",
          "name": "",
          "type": "uint8"
        }
      ],
      "stateMutability": "view",
      "type": "function"
    },
    {
      "inputs": [],
      "name": "_name",
      "outputs": [
        {
          "internalType": "string",
          "name": "",
          "type": "string"
        }
      ],
      "stateMutability": "view",
      "type": "function"
    },
    {
      "inputs": [],
      "name": "_symbol",
      "outputs": [
        {
          "internalType": "string",
          "name": "",
          "type": "string"
        }
      ],
      "stateMutability": "view",
      "type": "function"
    },
    {
      "inputs": [],
      "name": "_totalSupply",
      "outputs": [
        {
          "internalType": "uint256",
          "name": "",
          "type": "uint256"
        }
      ],
      "stateMutability": "view",
      "type": "function"
    },
    {
      "inputs": [
        {
          "internalType": "address",
          "name": "owner",
          "type": "address"
        },
        {
          "internalType": "address",
          "name": "spender",
          "type": "address"
        }
      ],
      "name": "allowance",
      "outputs": [
        {
          "internalType": "uint256",
          "name": "",
          "type": "uint256"
        }
      ],
      "stateMutability": "view",
      "type": "function"
    },
    {
      "inputs": [
        {
          "internalType": "address",
          "name": "spender",
          "type": "address"
        },
        {
          "internalType": "uint256",
          "name": "amount",
          "type": "uint256"
        }
      ],
      "name": "approve",
      "outputs": [
        {
          "internalType": "bool",
          "name": "",
          "type": "bool"
        }
      ],
      "stateMutability": "nonpayable",
      "type": "function"
    },
    {
      "inputs": [
        {
          "internalType": "address",
          "name": "_stakeService",
          "type": "address"
        }
      ],
      "name": "approveStakeService",
      "outputs": [
        {
          "internalType": "bool",
          "name": "",
          "type": "bool"
        }
      ],
      "stateMutability": "nonpayable",
      "type": "function"
    },
    {
      "inputs": [
        {
          "internalType": "address",
          "name": "account",
          "type": "address"
        }
      ],
      "name": "balanceOf",
      "outputs": [
        {
          "internalType": "uint256",
          "name": "",
          "type": "uint256"
        }
      ],
      "stateMutability": "view",
      "type": "function"
    },
    {
      "inputs": [
        {
          "internalType": "uint256",
          "name": "amount",
          "type": "uint256"
        }
      ],
      "name": "burn",
      "outputs": [
        {
          "internalType": "bool",
          "name": "",
          "type": "bool"
        }
      ],
      "stateMutability": "nonpayable",
      "type": "function"
    },
    {
      "inputs": [],
      "name": "decimals",
      "outputs": [
        {
          "internalType": "uint8",
          "name": "",
          "type": "uint8"
        }
      ],
      "stateMutability": "view",
      "type": "function"
    },
    {
      "inputs": [
        {
          "internalType": "uint256",
          "name": "amount",
          "type": "uint256"
        }
      ],
      "name": "mint",
      "outputs": [
        {
          "internalType": "bool",
          "name": "",
          "type": "bool"
        }
      ],
      "stateMutability": "nonpayable",
      "type": "function"
    },
    {
      "inputs": [],
      "name": "name",
      "outputs": [
        {
          "internalType": "string",
          "name": "",
          "type": "string"
        }
      ],
      "stateMutability": "view",
      "type": "function"
    },
    {
      "inputs": [],
      "name": "owner",
      "outputs": [
        {
          "internalType": "address",
          "name": "",
          "type": "address"
        }
      ],
      "stateMutability": "view",
      "type": "function"
    },
    {
      "inputs": [],
      "name": "renounceOwnership",
      "outputs": [],
      "stateMutability": "nonpayable",
      "type": "function"
    },
    {
      "inputs": [],
      "name": "symbol",
      "outputs": [
        {
          "internalType": "string",
          "name": "",
          "type": "string"
        }
      ],
      "stateMutability": "view",
      "type": "function"
    },
    {
      "inputs": [],
      "name": "totalSupply",
      "outputs": [
        {
          "internalType": "uint256",
          "name": "",
          "type": "uint256"
        }
      ],
      "stateMutability": "view",
      "type": "function"
    },
    {
      "inputs": [
        {
          "internalType": "address",
          "name": "recipient",
          "type": "address"
        },
        {
          "internalType": "uint256",
          "name": "amount",
          "type": "uint256"
        }
      ],
      "name": "transfer",
      "outputs": [
        {
          "internalType": "bool",
          "name": "",
          "type": "bool"
        }
      ],
      "stateMutability": "nonpayable",
      "type": "function"
    },
    {
      "inputs": [
        {
          "internalType": "address",
          "name": "sender",
          "type": "address"
        },
        {
          "internalType": "address",
          "name": "recipient",
          "type": "address"
        },
        {
          "internalType": "uint256",
          "name": "amount",
          "type": "uint256"
        }
      ],
      "name": "transferFrom",
      "outputs": [
        {
          "internalType": "bool",
          "name": "",
          "type": "bool"
        }
      ],
      "stateMutability": "nonpayable",
      "type": "function"
    },
    {
      "inputs": [
        {
          "internalType": "address",
          "name": "newOwner",
          "type": "address"
        }
      ],
      "name": "transferOwnership",
      "outputs": [],
      "stateMutability": "nonpayable",
      "type": "function"
    }
  ],
  "bytecode": "0x620186a060015560c0604052600c60808190526b29b4b6b83632902a37b5b2b760a11b60a0908152620000369160049190620000df565b506040805180820190915260028082526114d560f21b60209092019182526200006291600591620000df565b506006805460ff191660091790553480156200007d57600080fd5b5062000089336200008f565b620001c2565b600080546001600160a01b038381166001600160a01b0319831681178455604051919092169283917f8be0079c531659141344cd1fd0a4f28419497f9722a3daafe3b4186f6b6457e09190a35050565b828054620000ed9062000185565b90600052602060002090601f0160209004810192826200011157600085556200015c565b82601f106200012c57805160ff19168380011785556200015c565b828001600101855582156200015c579182015b828111156200015c5782518255916020019190600101906200013f565b506200016a9291506200016e565b5090565b5b808211156200016a57600081556001016200016f565b600181811c908216806200019a57607f821691505b60208210811415620001bc57634e487b7160e01b600052602260045260246000fd5b50919050565b610fe380620001d26000396000f3fe608060405234801561001057600080fd5b50600436106101775760003560e01c80636ebcf607116100d8578063a0712d681161008c578063d28d885211610066578063d28d885214610306578063dd62ed3e1461030e578063f2fde38b1461034757600080fd5b8063a0712d68146102d8578063a9059cbb146102eb578063b09f1266146102fe57600080fd5b8063715018a6116100bd578063715018a6146102ab5780638da5cb5b146102b557806395d89b41146102d057600080fd5b80636ebcf6071461026257806370a082311461028257600080fd5b8063313ce5671161012f5780633eaaf86b116101145780633eaaf86b1461023357806342966c681461023c5780634a1a8d9a1461024f57600080fd5b8063313ce5671461020d57806332424aa31461022657600080fd5b8063095ea7b311610160578063095ea7b3146101cf57806318160ddd146101f257806323b872dd146101fa57600080fd5b8063024c2ddd1461017c57806306fdde03146101ba575b600080fd5b6101a761018a366004610d9b565b600360209081526000928352604080842090915290825290205481565b6040519081526020015b60405180910390f35b6101c261035a565b6040516101b19190610dce565b6101e26101dd366004610e23565b6103ec565b60405190151581526020016101b1565b6001546101a7565b6101e2610208366004610e4d565b610403565b60065460ff165b60405160ff90911681526020016101b1565b6006546102149060ff1681565b6101a760015481565b6101e261024a366004610e89565b610463565b6101e261025d366004610ea2565b6104d6565b6101a7610270366004610ea2565b60026020526000908152604090205481565b6101a7610290366004610ea2565b6001600160a01b031660009081526002602052604090205490565b6102b3610547565b005b6000546040516001600160a01b0390911681526020016101b1565b6101c26105ad565b6101e26102e6366004610e89565b6105bc565b6101e26102f9366004610e23565b610621565b6101c261062e565b6101c26106bc565b6101a761031c366004610d9b565b6001600160a01b03918216600090815260036020908152604080832093909416825291909152205490565b6102b3610355366004610ea2565b6106c9565b60606004805461036990610ebd565b80601f016020809104026020016040519081016040528092919081815260200182805461039590610ebd565b80156103e25780601f106103b7576101008083540402835291602001916103e2565b820191906000526020600020905b8154815290600101906020018083116103c557829003601f168201915b5050505050905090565b60006103f93384846107ab565b5060019392505050565b6000610457843361045285604051806060016040528060288152602001610f3e602891396001600160a01b038a166000908152600360209081526040808320338452909152902054919061090a565b6107ab565b506103f9848484610936565b600080546001600160a01b031633146104c35760405162461bcd60e51b815260206004820181905260248201527f4f776e61626c653a2063616c6c6572206973206e6f7420746865206f776e657260448201526064015b60405180910390fd5b6104cd3383610afb565b5060015b919050565b600080546001600160a01b031633146105315760405162461bcd60e51b815260206004820181905260248201527f4f776e61626c653a2063616c6c6572206973206e6f7420746865206f776e657260448201526064016104ba565b61053e30836001546107ab565b50600192915050565b6000546001600160a01b031633146105a15760405162461bcd60e51b815260206004820181905260248201527f4f776e61626c653a2063616c6c6572206973206e6f7420746865206f776e657260448201526064016104ba565b6105ab6000610c23565b565b60606005805461036990610ebd565b600080546001600160a01b031633146106175760405162461bcd60e51b815260206004820181905260248201527f4f776e61626c653a2063616c6c6572206973206e6f7420746865206f776e657260448201526064016104ba565b6104cd3383610c8b565b600061053e338484610936565b6005805461063b90610ebd565b80601f016020809104026020016040519081016040528092919081815260200182805461066790610ebd565b80156106b45780601f10610689576101008083540402835291602001916106b4565b820191906000526020600020905b81548152906001019060200180831161069757829003601f168201915b505050505081565b6004805461063b90610ebd565b6000546001600160a01b031633146107235760405162461bcd60e51b815260206004820181905260248201527f4f776e61626c653a2063616c6c6572206973206e6f7420746865206f776e657260448201526064016104ba565b6001600160a01b03811661079f5760405162461bcd60e51b815260206004820152602660248201527f4f776e61626c653a206e6577206f776e657220697320746865207a65726f206160448201527f646472657373000000000000000000000000000000000000000000000000000060648201526084016104ba565b6107a881610c23565b50565b60006001600160a01b0384166108285760405162461bcd60e51b8152602060048201526024808201527f42455032303a20617070726f76652066726f6d20746865207a65726f2061646460448201527f726573730000000000000000000000000000000000000000000000000000000060648201526084016104ba565b6001600160a01b0383166108a45760405162461bcd60e51b815260206004820152602260248201527f42455032303a20617070726f766520746f20746865207a65726f20616464726560448201527f737300000000000000000000000000000000000000000000000000000000000060648201526084016104ba565b6001600160a01b0384811660008181526003602090815260408083209488168084529482529182902086905590518581527f8c5be1e5ebec7d5bd14f71427d1e84f3dd0314c0f7b2291e5b200ac8c7c3b925910160405180910390a35060019392505050565b6000818484111561092e5760405162461bcd60e51b81526004016104ba9190610dce565b505050900390565b6001600160a01b0383166109b25760405162461bcd60e51b815260206004820152602560248201527f42455032303a207472616e736665722066726f6d20746865207a65726f20616460448201527f647265737300000000000000000000000000000000000000000000000000000060648201526084016104ba565b6001600160a01b038216610a2e5760405162461bcd60e51b815260206004820152602360248201527f42455032303a207472616e7366657220746f20746865207a65726f206164647260448201527f657373000000000000000000000000000000000000000000000000000000000060648201526084016104ba565b610a6b81604051806060016040528060268152602001610f66602691396001600160a01b038616600090815260026020526040902054919061090a565b6001600160a01b038085166000908152600260205260408082209390935590841681522054610a9a9082610d65565b6001600160a01b0380841660008181526002602052604090819020939093559151908516907fddf252ad1be2c89b69c2b068fc378daa952ba7f163c4a11628f55a4df523b3ef90610aee9085815260200190565b60405180910390a3505050565b6001600160a01b038216610b775760405162461bcd60e51b815260206004820152602160248201527f42455032303a206275726e2066726f6d20746865207a65726f2061646472657360448201527f730000000000000000000000000000000000000000000000000000000000000060648201526084016104ba565b610bb481604051806060016040528060228152602001610f8c602291396001600160a01b038516600090815260026020526040902054919061090a565b6001600160a01b038316600090815260026020526040902055600154610bda9082610d78565b6001556040518181526000906001600160a01b038416907fddf252ad1be2c89b69c2b068fc378daa952ba7f163c4a11628f55a4df523b3ef906020015b60405180910390a35050565b600080546001600160a01b038381167fffffffffffffffffffffffff0000000000000000000000000000000000000000831681178455604051919092169283917f8be0079c531659141344cd1fd0a4f28419497f9722a3daafe3b4186f6b6457e09190a35050565b6001600160a01b038216610ce15760405162461bcd60e51b815260206004820152601f60248201527f42455032303a206d696e7420746f20746865207a65726f20616464726573730060448201526064016104ba565b600154610cee9082610d65565b6001556001600160a01b038216600090815260026020526040902054610d149082610d65565b6001600160a01b0383166000818152600260205260408082209390935591519091907fddf252ad1be2c89b69c2b068fc378daa952ba7f163c4a11628f55a4df523b3ef90610c179085815260200190565b6000610d718284610f0e565b9392505050565b6000610d718284610f26565b80356001600160a01b03811681146104d157600080fd5b60008060408385031215610dae57600080fd5b610db783610d84565b9150610dc560208401610d84565b90509250929050565b600060208083528351808285015260005b81811015610dfb57858101830151858201604001528201610ddf565b81811115610e0d576000604083870101525b50601f01601f1916929092016040019392505050565b60008060408385031215610e3657600080fd5b610e3f83610d84565b946020939093013593505050565b600080600060608486031215610e6257600080fd5b610e6b84610d84565b9250610e7960208501610d84565b9150604084013590509250925092565b600060208284031215610e9b57600080fd5b5035919050565b600060208284031215610eb457600080fd5b610d7182610d84565b600181811c90821680610ed157607f821691505b60208210811415610ef257634e487b7160e01b600052602260045260246000fd5b50919050565b634e487b7160e01b600052601160045260246000fd5b60008219821115610f2157610f21610ef8565b500190565b600082821015610f3857610f38610ef8565b50039056fe42455032303a207472616e7366657220616d6f756e74206578636565647320616c6c6f77616e636542455032303a207472616e7366657220616d6f756e7420657863656564732062616c616e636542455032303a206275726e20616d6f756e7420657863656564732062616c616e6365a26469706673582212200f536ae365386be34edddd7bff1d63ceb2a5426f36267168dd0cddbffd2936a864736f6c63430008090033",
  "linkReferences": {},
  "deployedLinkReferences": {}
}