{
  "_format": "hh-sol-artifact-1",
  "contractName": "Staking",
  "sourceName": "contracts/staking/ERC20/ERC20MultipleTokenStaking.sol",
  "abi": [
    {
      "inputs": [
        {
          "internalType": "address",
          "name": "_tokenProvaider",
          "type": "address"
        },
        {
          "internalType": "uint256",
          "name": "_durationStake",
          "type": "uint256"
        },
        {
          "internalType": "uint16",
          "name": "_rewardRate",
          "type": "uint16"
        },
        {
          "internalType": "uint256",
          "name": "_maxAmountStake",
          "type": "uint256"
        },
        {
          "internalType": "address",
          "name": "_swapperRouter",
          "type": "address"
        }
      ],
      "stateMutability": "nonpayable",
      "type": "constructor"
    },
    {
      "anonymous": false,
      "inputs": [
        {
          "indexed": true,
          "internalType": "address",
          "name": "previousOwner",
          "type": "address"
        },
        {
          "indexed": true,
          "internalType": "address",
          "name": "newOwner",
          "type": "address"
        }
      ],
      "name": "OwnershipTransferred",
      "type": "event"
    },
    {
      "inputs": [
        {
          "internalType": "address",
          "name": "_tokenAddress",
          "type": "address"
        },
        {
          "internalType": "bool",
          "name": "_isAllowed",
          "type": "bool"
        }
      ],
      "name": "addOrUpdateTokenStakeAllowed",
      "outputs": [],
      "stateMutability": "nonpayable",
      "type": "function"
    },
    {
      "inputs": [
        {
          "internalType": "contract IERC20",
          "name": "_token",
          "type": "address"
        },
        {
          "internalType": "uint256",
          "name": "_amount",
          "type": "uint256"
        }
      ],
      "name": "addStoredToken",
      "outputs": [],
      "stateMutability": "nonpayable",
      "type": "function"
    },
    {
      "inputs": [
        {
          "internalType": "contract IERC20",
          "name": "_tokenStake",
          "type": "address"
        }
      ],
      "name": "claimReward",
      "outputs": [],
      "stateMutability": "nonpayable",
      "type": "function"
    },
    {
      "inputs": [],
      "name": "duration",
      "outputs": [
        {
          "internalType": "uint256",
          "name": "",
          "type": "uint256"
        }
      ],
      "stateMutability": "view",
      "type": "function"
    },
    {
      "inputs": [],
      "name": "feeStake",
      "outputs": [
        {
          "internalType": "uint256",
          "name": "",
          "type": "uint256"
        }
      ],
      "stateMutability": "view",
      "type": "function"
    },
    {
      "inputs": [],
      "name": "getBnbPrice",
      "outputs": [
        {
          "internalType": "uint256",
          "name": "",
          "type": "uint256"
        }
      ],
      "stateMutability": "view",
      "type": "function"
    },
    {
      "inputs": [
        {
          "internalType": "address",
          "name": "_tokenStake",
          "type": "address"
        },
        {
          "internalType": "address",
          "name": "_address",
          "type": "address"
        }
      ],
      "name": "isStakeholder",
      "outputs": [
        {
          "internalType": "bool",
          "name": "",
          "type": "bool"
        }
      ],
      "stateMutability": "view",
      "type": "function"
    },
    {
      "inputs": [],
      "name": "maxAmountStake",
      "outputs": [
        {
          "internalType": "uint256",
          "name": "",
          "type": "uint256"
        }
      ],
      "stateMutability": "view",
      "type": "function"
    },
    {
      "inputs": [],
      "name": "owner",
      "outputs": [
        {
          "internalType": "address",
          "name": "",
          "type": "address"
        }
      ],
      "stateMutability": "view",
      "type": "function"
    },
    {
      "inputs": [
        {
          "internalType": "contract IERC20",
          "name": "_token",
          "type": "address"
        }
      ],
      "name": "removeStoredToken",
      "outputs": [],
      "stateMutability": "nonpayable",
      "type": "function"
    },
    {
      "inputs": [],
      "name": "renounceOwnership",
      "outputs": [],
      "stateMutability": "nonpayable",
      "type": "function"
    },
    {
      "inputs": [
        {
          "internalType": "address",
          "name": "_account",
          "type": "address"
        },
        {
          "internalType": "address",
          "name": "_tokenStake",
          "type": "address"
        }
      ],
      "name": "rewardOf",
      "outputs": [
        {
          "internalType": "uint256",
          "name": "",
          "type": "uint256"
        }
      ],
      "stateMutability": "view",
      "type": "function"
    },
    {
      "inputs": [
        {
          "internalType": "address",
          "name": "",
          "type": "address"
        }
      ],
      "name": "rewardRate",
      "outputs": [
        {
          "internalType": "uint128",
          "name": "",
          "type": "uint128"
        }
      ],
      "stateMutability": "view",
      "type": "function"
    },
    {
      "inputs": [
        {
          "internalType": "uint256",
          "name": "_duration",
          "type": "uint256"
        }
      ],
      "name": "setDuration",
      "outputs": [],
      "stateMutability": "nonpayable",
      "type": "function"
    },
    {
      "inputs": [
        {
          "internalType": "uint256",
          "name": "_feeStake",
          "type": "uint256"
        }
      ],
      "name": "setFeeStake",
      "outputs": [],
      "stateMutability": "nonpayable",
      "type": "function"
    },
    {
      "inputs": [
        {
          "internalType": "address",
          "name": "_token",
          "type": "address"
        },
        {
          "internalType": "uint128",
          "name": "_rate",
          "type": "uint128"
        }
      ],
      "name": "setRewardRate",
      "outputs": [],
      "stateMutability": "nonpayable",
      "type": "function"
    },
    {
      "inputs": [
        {
          "internalType": "address",
          "name": "_stakeProvaider",
          "type": "address"
        }
      ],
      "name": "setStakeProvaider",
      "outputs": [],
      "stateMutability": "nonpayable",
      "type": "function"
    },
    {
      "inputs": [
        {
          "internalType": "address",
          "name": "_tokenStake",
          "type": "address"
        },
        {
          "internalType": "uint256",
          "name": "_amount",
          "type": "uint256"
        }
      ],
      "name": "stake",
      "outputs": [],
      "stateMutability": "nonpayable",
      "type": "function"
    },
    {
      "inputs": [],
      "name": "stakeProvaider",
      "outputs": [
        {
          "internalType": "contract IERC20",
          "name": "",
          "type": "address"
        }
      ],
      "stateMutability": "view",
      "type": "function"
    },
    {
      "inputs": [
        {
          "internalType": "address",
          "name": "",
          "type": "address"
        }
      ],
      "name": "tokenStakeAllowed",
      "outputs": [
        {
          "internalType": "bool",
          "name": "",
          "type": "bool"
        }
      ],
      "stateMutability": "view",
      "type": "function"
    },
    {
      "inputs": [
        {
          "internalType": "address",
          "name": "newOwner",
          "type": "address"
        }
      ],
      "name": "transferOwnership",
      "outputs": [],
      "stateMutability": "nonpayable",
      "type": "function"
    },
    {
      "inputs": [],
      "name": "withdraw",
      "outputs": [],
      "stateMutability": "nonpayable",
      "type": "function"
    }
  ],
  "bytecode": "0x60806040526000600255600060035562093a806004553480156200002257600080fd5b5060405162001fd638038062001fd683398101604081905262000045916200013e565b6200005033620000d1565b60018080556001600160a01b039586166000818152600660209081526040808320805460ff19169095179094556003959095556005909452922080546001600160801b03191661ffff90941693909317909255600492909255600a80546001600160a01b0319908116909317905560098054919093169116179055620001a5565b600080546001600160a01b038381166001600160a01b0319831681178455604051919092169283917f8be0079c531659141344cd1fd0a4f28419497f9722a3daafe3b4186f6b6457e09190a35050565b80516001600160a01b03811681146200013957600080fd5b919050565b600080600080600060a086880312156200015757600080fd5b620001628662000121565b945060208601519350604086015161ffff811681146200018157600080fd5b60608701519093509150620001996080870162000121565b90509295509295909350565b611e2180620001b56000396000f3fe608060405234801561001057600080fd5b50600436106101825760003560e01c80639457740a116100d8578063d265d0b61161008c578063e725835911610066578063e72583591461033c578063f2fde38b1461034f578063f6be71d11461036257600080fd5b8063d265d0b614610303578063d279c19114610316578063e1fbefb81461032957600080fd5b8063c45618f5116100bd578063c45618f5146102d4578063cb381aa3146102e7578063d0761c34146102fa57600080fd5b80639457740a146102ae578063adc9772e146102c157600080fd5b80634732aa1d1161013a5780638436c400116101145780638436c4001461025f57806389cb158a1461028a5780638da5cb5b1461029d57600080fd5b80634732aa1d14610211578063715018a61461022457806382c082881461022c57600080fd5b80630fb5a6b41161016b5780630fb5a6b4146101ab578063221ca18c146101b45780633ccfd60b1461020757600080fd5b8063014231a81461018757806308760b0d146101a3575b600080fd5b61019060025481565b6040519081526020015b60405180910390f35b610190610375565b61019060045481565b6101e66101c2366004611a3c565b6005602052600090815260409020546fffffffffffffffffffffffffffffffff1681565b6040516fffffffffffffffffffffffffffffffff909116815260200161019a565b61020f61056e565b005b61019061021f366004611a59565b61060a565b61020f6107f9565b61024f61023a366004611a3c565b60066020526000908152604090205460ff1681565b604051901515815260200161019a565b600a54610272906001600160a01b031681565b6040516001600160a01b03909116815260200161019a565b61020f610298366004611a3c565b61085f565b6000546001600160a01b0316610272565b61024f6102bc366004611a59565b6109dc565b61020f6102cf366004611a92565b610a99565b61020f6102e2366004611abe565b610cd0565b61020f6102f5366004611a3c565b610d2f565b61019060035481565b61020f610311366004611ae5565b610db8565b61020f610324366004611a3c565b610e3d565b61020f610337366004611a92565b610ebf565b61020f61034a366004611b13565b610f71565b61020f61035d366004611a3c565b611092565b61020f610370366004611abe565b611171565b604080516002808252606082018352600092839291906020830190803683375050600954604080517fad5c464800000000000000000000000000000000000000000000000000000000815290519394506001600160a01b039091169263ad5c464892506004808301926020929190829003018186803b1580156103f757600080fd5b505afa15801561040b573d6000803e3d6000fd5b505050506040513d601f19601f8201168201806040525081019061042f9190611b6c565b8160008151811061044257610442611b89565b60200260200101906001600160a01b031690816001600160a01b03168152505073e9e7cea3dedca5984780bafc599bd69add087d568160018151811061048a5761048a611b89565b6001600160a01b0392831660209182029290920101526009546040517fd06ca61f000000000000000000000000000000000000000000000000000000008152633b9aca0092600092169063d06ca61f906104ea9085908790600401611b9f565b60006040518083038186803b15801561050257600080fd5b505afa158015610516573d6000803e3d6000fd5b505050506040513d6000823e601f3d908101601f1916820160405261053e9190810190611bf6565b9050818160018151811061055457610554611b89565b60200260200101516105669190611cca565b935050505090565b6000546001600160a01b031633146105cd5760405162461bcd60e51b815260206004820181905260248201527f4f776e61626c653a2063616c6c6572206973206e6f7420746865206f776e657260448201526064015b60405180910390fd5b600080546040516001600160a01b03909116914780156108fc02929091818181858888f19350505050158015610607573d6000803e3d6000fd5b50565b600061061682846109dc565b15156001146106675760405162461bcd60e51b815260206004820152601260248201527f4163636f756e74206e6f7420686f6c646572000000000000000000000000000060448201526064016105c4565b42600080805b6001600160a01b03871660009081526007602052604090205481101561077a576001600160a01b03871660009081526007602052604090208054829081106106b7576106b7611b89565b60009182526020909120600390910201546001600160a01b0387811691161415610768576001600160a01b038716600090815260076020526040902080548290811061070557610705611b89565b906000526020600020906003020160010154915060076000886001600160a01b03166001600160a01b03168152602001908152602001600020818154811061074f5761074f611b89565b906000526020600020906003020160020154925061077a565b610773600182611cec565b905061066d565b5060006004548361078b9190611cec565b9050838111156107a25760009450505050506107f3565b6001600160a01b0386166000908152600560205260408120546fffffffffffffffffffffffffffffffff16906103e86107db8386611d04565b6107e59190611cca565b96506107f395505050505050565b92915050565b6000546001600160a01b031633146108535760405162461bcd60e51b815260206004820181905260248201527f4f776e61626c653a2063616c6c6572206973206e6f7420746865206f776e657260448201526064016105c4565b61085d60006111d0565b565b6000546001600160a01b031633146108b95760405162461bcd60e51b815260206004820181905260248201527f4f776e61626c653a2063616c6c6572206973206e6f7420746865206f776e657260448201526064016105c4565b6040517f70a082310000000000000000000000000000000000000000000000000000000081523060048201526000906001600160a01b038316906370a082319060240160206040518083038186803b15801561091457600080fd5b505afa158015610928573d6000803e3d6000fd5b505050506040513d601f19601f8201168201806040525081019061094c9190611d23565b90508061099b5760405162461bcd60e51b815260206004820152600f60248201527f546f6b656e20697320656d70747921000000000000000000000000000000000060448201526064016105c4565b6109c16109b06000546001600160a01b031690565b6001600160a01b038416908361122d565b506001600160a01b0316600090815260086020526040812055565b6001600160a01b03811660009081526007602052604081205415610a915760005b6001600160a01b038316600090815260076020526040902054811015610a87576001600160a01b0383166000908152600760205260409020805482908110610a4757610a47611b89565b60009182526020909120600390910201546001600160a01b0385811691161415610a755760019150506107f3565b610a80600182611cec565b90506109fd565b50600090506107f3565b5060006107f3565b610aa16112db565b60008111610af15760405162461bcd60e51b815260206004820152600a60248201527f616d6f756e74203d20300000000000000000000000000000000000000000000060448201526064016105c4565b6001600160a01b03821660009081526006602052604090205460ff161515600114610b5e5760405162461bcd60e51b815260206004820152601b60248201527f546f6b656e206e6f7420616c6c6f77656420746f207374616b6521000000000060448201526064016105c4565b806003541015610bb05760405162461bcd60e51b815260206004820152601860248201527f546f6b656e7320657863656564206d6178207374616b6521000000000000000060448201526064016105c4565b60006103e8600254610bc29190611cca565b610bcc9083611d04565b610bd69083611cec565b9050610be283336109dc565b610c6d5733600090815260076020908152604080832081516060810183526001600160a01b038881168252818501878152429483019485528354600180820186559488529590962091516003909502909101805473ffffffffffffffffffffffffffffffffffffffff1916949091169390931783559251928201929092559051600290910155610c77565b610c778382611335565b600a546001600160a01b0384811691161415610caa57600a54610ca5906001600160a01b031633308561151d565b610cc2565b82610cc06001600160a01b03821633308661151d565b505b50610ccc60018055565b5050565b6000546001600160a01b03163314610d2a5760405162461bcd60e51b815260206004820181905260248201527f4f776e61626c653a2063616c6c6572206973206e6f7420746865206f776e657260448201526064016105c4565b600255565b6000546001600160a01b03163314610d895760405162461bcd60e51b815260206004820181905260248201527f4f776e61626c653a2063616c6c6572206973206e6f7420746865206f776e657260448201526064016105c4565b600a805473ffffffffffffffffffffffffffffffffffffffff19166001600160a01b0392909216919091179055565b6000546001600160a01b03163314610e125760405162461bcd60e51b815260206004820181905260248201527f4f776e61626c653a2063616c6c6572206973206e6f7420746865206f776e657260448201526064016105c4565b6001600160a01b03919091166000908152600660205260409020805460ff1916911515919091179055565b610e456112db565b6000610e51338361060a565b905080610ea05760405162461bcd60e51b815260206004820152601a60248201527f5374616b652054696d65206973206e6f74206f7665722079657400000000000060448201526064016105c4565b610eab823383611574565b610eb5338361166a565b5061060760018055565b6000546001600160a01b03163314610f195760405162461bcd60e51b815260206004820181905260248201527f4f776e61626c653a2063616c6c6572206973206e6f7420746865206f776e657260448201526064016105c4565b610f2e6001600160a01b03831633308461151d565b6001600160a01b038216600090815260086020526040902054610f51908261178b565b6001600160a01b0390921660009081526008602052604090209190915550565b6000546001600160a01b03163314610fcb5760405162461bcd60e51b815260206004820181905260248201527f4f776e61626c653a2063616c6c6572206973206e6f7420746865206f776e657260448201526064016105c4565b6001600160a01b03821660009081526006602052604090205460ff1615156001146110385760405162461bcd60e51b815260206004820152601c60248201527f546f6b656e206e6f7420616c6c6f77656420746f207374616b65212e0000000060448201526064016105c4565b6001600160a01b0391909116600090815260056020526040902080547fffffffffffffffffffffffffffffffff00000000000000000000000000000000166fffffffffffffffffffffffffffffffff909216919091179055565b6000546001600160a01b031633146110ec5760405162461bcd60e51b815260206004820181905260248201527f4f776e61626c653a2063616c6c6572206973206e6f7420746865206f776e657260448201526064016105c4565b6001600160a01b0381166111685760405162461bcd60e51b815260206004820152602660248201527f4f776e61626c653a206e6577206f776e657220697320746865207a65726f206160448201527f646472657373000000000000000000000000000000000000000000000000000060648201526084016105c4565b610607816111d0565b6000546001600160a01b031633146111cb5760405162461bcd60e51b815260206004820181905260248201527f4f776e61626c653a2063616c6c6572206973206e6f7420746865206f776e657260448201526064016105c4565b600455565b600080546001600160a01b0383811673ffffffffffffffffffffffffffffffffffffffff19831681178455604051919092169283917f8be0079c531659141344cd1fd0a4f28419497f9722a3daafe3b4186f6b6457e09190a35050565b6040516001600160a01b0383166024820152604481018290526112d69084907fa9059cbb00000000000000000000000000000000000000000000000000000000906064015b60408051601f198184030181529190526020810180517bffffffffffffffffffffffffffffffffffffffffffffffffffffffff167fffffffff000000000000000000000000000000000000000000000000000000009093169290921790915261179e565b505050565b6002600154141561132e5760405162461bcd60e51b815260206004820152601f60248201527f5265656e7472616e637947756172643a207265656e7472616e742063616c6c0060448201526064016105c4565b6002600155565b61133f82336109dc565b15156001146113905760405162461bcd60e51b815260206004820152601860248201527f596f7520617265206e6f74207374616b6520686f6c646572000000000000000060448201526064016105c4565b8060035410156113e25760405162461bcd60e51b815260206004820152601860248201527f546f6b656e7320657863656564206d6178207374616b6521000000000000000060448201526064016105c4565b60005b336000908152600760205260409020548110156112d65733600090815260076020526040902080548290811061141d5761141d611b89565b60009182526020909120600390910201546001600160a01b038481169116141561150b5733600090815260076020526040902080546114889184918490811061146857611468611b89565b90600052602060002090600302016001015461178b90919063ffffffff16565b3360009081526007602052604090208054839081106114a9576114a9611b89565b9060005260206000209060030201600101819055504260076000336001600160a01b03166001600160a01b0316815260200190815260200160002082815481106114f5576114f5611b89565b9060005260206000209060030201600201819055505b611516600182611cec565b90506113e5565b6040516001600160a01b038085166024830152831660448201526064810182905261156e9085907f23b872dd0000000000000000000000000000000000000000000000000000000090608401611272565b50505050565b6001600160a01b03831660009081526008602052604090205483828210156115c957600a546001600160a01b03868116911614156115c457600a546115c4906001600160a01b031680338661151d565b611663565b600a546001600160a01b0386811691161415611639576115f36001600160a01b038216858561122d565b6001600160a01b0381166000908152600860205260409020546115c490829061161d908690611d3c565b6001600160a01b03909116600090815260086020526040902055565b6001600160a01b03811660009081526008602052604090205461166390829061161d908690611d3c565b5050505050565b61167482826109dc565b15156001146116c55760405162461bcd60e51b815260206004820152601860248201527f596f7520617265206e6f74207374616b6520686f6c646572000000000000000060448201526064016105c4565b60005b6001600160a01b0382166000908152600760205260409020548110156112d6576001600160a01b038216600090815260076020526040902080548290811061171257611712611b89565b60009182526020909120600390910201546001600160a01b0384811691161415611779576001600160a01b038216600090815260076020526040902080544291908390811061176357611763611b89565b9060005260206000209060030201600201819055505b611784600182611cec565b90506116c8565b60006117978284611cec565b9392505050565b60006117f3826040518060400160405280602081526020017f5361666545524332303a206c6f772d6c6576656c2063616c6c206661696c6564815250856001600160a01b03166118839092919063ffffffff16565b8051909150156112d657808060200190518101906118119190611d53565b6112d65760405162461bcd60e51b815260206004820152602a60248201527f5361666545524332303a204552433230206f7065726174696f6e20646964206e60448201527f6f7420737563636565640000000000000000000000000000000000000000000060648201526084016105c4565b6060611892848460008561189a565b949350505050565b6060824710156119125760405162461bcd60e51b815260206004820152602660248201527f416464726573733a20696e73756666696369656e742062616c616e636520666f60448201527f722063616c6c000000000000000000000000000000000000000000000000000060648201526084016105c4565b600080866001600160a01b0316858760405161192e9190611d9c565b60006040518083038185875af1925050503d806000811461196b576040519150601f19603f3d011682016040523d82523d6000602084013e611970565b606091505b50915091506119818783838761198c565b979650505050505050565b606083156119f85782516119f1576001600160a01b0385163b6119f15760405162461bcd60e51b815260206004820152601d60248201527f416464726573733a2063616c6c20746f206e6f6e2d636f6e747261637400000060448201526064016105c4565b5081611892565b6118928383815115611a0d5781518083602001fd5b8060405162461bcd60e51b81526004016105c49190611db8565b6001600160a01b038116811461060757600080fd5b600060208284031215611a4e57600080fd5b813561179781611a27565b60008060408385031215611a6c57600080fd5b8235611a7781611a27565b91506020830135611a8781611a27565b809150509250929050565b60008060408385031215611aa557600080fd5b8235611ab081611a27565b946020939093013593505050565b600060208284031215611ad057600080fd5b5035919050565b801515811461060757600080fd5b60008060408385031215611af857600080fd5b8235611b0381611a27565b91506020830135611a8781611ad7565b60008060408385031215611b2657600080fd5b8235611b3181611a27565b915060208301356fffffffffffffffffffffffffffffffff81168114611a8757600080fd5b634e487b7160e01b600052604160045260246000fd5b600060208284031215611b7e57600080fd5b815161179781611a27565b634e487b7160e01b600052603260045260246000fd5b6000604082018483526020604081850152818551808452606086019150828701935060005b81811015611be95784516001600160a01b031683529383019391830191600101611bc4565b5090979650505050505050565b60006020808385031215611c0957600080fd5b825167ffffffffffffffff80821115611c2157600080fd5b818501915085601f830112611c3557600080fd5b815181811115611c4757611c47611b56565b8060051b604051601f19603f83011681018181108582111715611c6c57611c6c611b56565b604052918252848201925083810185019188831115611c8a57600080fd5b938501935b82851015611ca857845184529385019392850192611c8f565b98975050505050505050565b634e487b7160e01b600052601160045260246000fd5b600082611ce757634e487b7160e01b600052601260045260246000fd5b500490565b60008219821115611cff57611cff611cb4565b500190565b6000816000190483118215151615611d1e57611d1e611cb4565b500290565b600060208284031215611d3557600080fd5b5051919050565b600082821015611d4e57611d4e611cb4565b500390565b600060208284031215611d6557600080fd5b815161179781611ad7565b60005b83811015611d8b578181015183820152602001611d73565b8381111561156e5750506000910152565b60008251611dae818460208701611d70565b9190910192915050565b6020815260008251806020840152611dd7816040850160208701611d70565b601f01601f1916919091016040019291505056fea26469706673582212200742b9e54d8cd9f7d6d830f170930bb22c7a99c3e02e57a23626efe9a4e35b4f64736f6c63430008090033",
  "linkReferences": {},
  "deployedLinkReferences": {}
}