{
  "_format": "hh-sol-artifact-1",
  "contractName": "ArbistaleVault",
  "sourceName": "contracts/staking/ERC20/ERC20Staking.sol",
  "abi": [
    {
      "inputs": [
        {
          "internalType": "address",
          "name": "_tokenProvaider",
          "type": "address"
        },
        {
          "internalType": "address",
          "name": "_devAddress",
          "type": "address"
        },
        {
          "internalType": "uint256",
          "name": "_durationFlexibleStake",
          "type": "uint256"
        },
        {
          "internalType": "uint256",
          "name": "_durationLockStake",
          "type": "uint256"
        },
        {
          "internalType": "uint16",
          "name": "_rewardRateFlexibleStake",
          "type": "uint16"
        },
        {
          "internalType": "uint16",
          "name": "_rewardRateLockStake",
          "type": "uint16"
        },
        {
          "internalType": "uint256",
          "name": "_maxAmountStake",
          "type": "uint256"
        }
      ],
      "stateMutability": "nonpayable",
      "type": "constructor"
    },
    {
      "inputs": [
        {
          "internalType": "contract IERC20",
          "name": "_token",
          "type": "address"
        },
        {
          "internalType": "uint256",
          "name": "_amount",
          "type": "uint256"
        }
      ],
      "name": "addToken",
      "outputs": [],
      "stateMutability": "nonpayable",
      "type": "function"
    },
    {
      "inputs": [],
      "name": "claimRewardFlexibleStake",
      "outputs": [],
      "stateMutability": "nonpayable",
      "type": "function"
    },
    {
      "inputs": [],
      "name": "claimRewardLockStake",
      "outputs": [],
      "stateMutability": "nonpayable",
      "type": "function"
    },
    {
      "inputs": [],
      "name": "claimRewardLockStakeAndUnstake",
      "outputs": [],
      "stateMutability": "nonpayable",
      "type": "function"
    },
    {
      "inputs": [],
      "name": "currentTime",
      "outputs": [
        {
          "internalType": "uint256",
          "name": "",
          "type": "uint256"
        }
      ],
      "stateMutability": "view",
      "type": "function"
    },
    {
      "inputs": [],
      "name": "dev",
      "outputs": [
        {
          "internalType": "address",
          "name": "",
          "type": "address"
        }
      ],
      "stateMutability": "view",
      "type": "function"
    },
    {
      "inputs": [],
      "name": "feeStake",
      "outputs": [
        {
          "internalType": "uint256",
          "name": "",
          "type": "uint256"
        }
      ],
      "stateMutability": "view",
      "type": "function"
    },
    {
      "inputs": [],
      "name": "flexibleStakeDuration",
      "outputs": [
        {
          "internalType": "uint256",
          "name": "",
          "type": "uint256"
        }
      ],
      "stateMutability": "view",
      "type": "function"
    },
    {
      "inputs": [
        {
          "internalType": "address",
          "name": "_address",
          "type": "address"
        }
      ],
      "name": "isStakeHolder",
      "outputs": [
        {
          "internalType": "bool",
          "name": "",
          "type": "bool"
        }
      ],
      "stateMutability": "view",
      "type": "function"
    },
    {
      "inputs": [],
      "name": "lockDuration",
      "outputs": [
        {
          "internalType": "uint256",
          "name": "",
          "type": "uint256"
        }
      ],
      "stateMutability": "view",
      "type": "function"
    },
    {
      "inputs": [],
      "name": "maxAmountStake",
      "outputs": [
        {
          "internalType": "uint256",
          "name": "",
          "type": "uint256"
        }
      ],
      "stateMutability": "view",
      "type": "function"
    },
    {
      "inputs": [
        {
          "internalType": "contract IERC20",
          "name": "_token",
          "type": "address"
        },
        {
          "internalType": "uint256",
          "name": "_amount",
          "type": "uint256"
        }
      ],
      "name": "removeStoredToken",
      "outputs": [],
      "stateMutability": "nonpayable",
      "type": "function"
    },
    {
      "inputs": [
        {
          "internalType": "uint256",
          "name": "_amount",
          "type": "uint256"
        }
      ],
      "name": "requestBalanceFromStakeProvaider",
      "outputs": [],
      "stateMutability": "nonpayable",
      "type": "function"
    },
    {
      "inputs": [
        {
          "internalType": "address",
          "name": "_account",
          "type": "address"
        }
      ],
      "name": "rewardOfFlexibleStake",
      "outputs": [
        {
          "internalType": "uint256",
          "name": "",
          "type": "uint256"
        }
      ],
      "stateMutability": "view",
      "type": "function"
    },
    {
      "inputs": [
        {
          "internalType": "address",
          "name": "_account",
          "type": "address"
        }
      ],
      "name": "rewardOfLockStake",
      "outputs": [
        {
          "internalType": "uint256",
          "name": "",
          "type": "uint256"
        }
      ],
      "stateMutability": "view",
      "type": "function"
    },
    {
      "inputs": [],
      "name": "rewardRateFlexibleStake",
      "outputs": [
        {
          "internalType": "uint16",
          "name": "",
          "type": "uint16"
        }
      ],
      "stateMutability": "view",
      "type": "function"
    },
    {
      "inputs": [],
      "name": "rewardRateLockStake",
      "outputs": [
        {
          "internalType": "uint16",
          "name": "",
          "type": "uint16"
        }
      ],
      "stateMutability": "view",
      "type": "function"
    },
    {
      "inputs": [
        {
          "internalType": "uint256",
          "name": "_amount",
          "type": "uint256"
        }
      ],
      "name": "sendBackTokenToProvaider",
      "outputs": [],
      "stateMutability": "nonpayable",
      "type": "function"
    },
    {
      "inputs": [
        {
          "internalType": "address",
          "name": "_devAddress",
          "type": "address"
        }
      ],
      "name": "setDev",
      "outputs": [],
      "stateMutability": "nonpayable",
      "type": "function"
    },
    {
      "inputs": [
        {
          "internalType": "uint256",
          "name": "_duration",
          "type": "uint256"
        }
      ],
      "name": "setDurationFlexibleReward",
      "outputs": [],
      "stateMutability": "nonpayable",
      "type": "function"
    },
    {
      "inputs": [
        {
          "internalType": "uint256",
          "name": "_duration",
          "type": "uint256"
        }
      ],
      "name": "setDurationLockStake",
      "outputs": [],
      "stateMutability": "nonpayable",
      "type": "function"
    },
    {
      "inputs": [
        {
          "internalType": "uint256",
          "name": "_feeStake",
          "type": "uint256"
        }
      ],
      "name": "setFeeStake",
      "outputs": [],
      "stateMutability": "nonpayable",
      "type": "function"
    },
    {
      "inputs": [
        {
          "internalType": "uint256",
          "name": "_amountStake",
          "type": "uint256"
        }
      ],
      "name": "setMaxStake",
      "outputs": [],
      "stateMutability": "nonpayable",
      "type": "function"
    },
    {
      "inputs": [
        {
          "internalType": "uint16",
          "name": "_rate",
          "type": "uint16"
        }
      ],
      "name": "setRewardRateFlexibleStake",
      "outputs": [],
      "stateMutability": "nonpayable",
      "type": "function"
    },
    {
      "inputs": [
        {
          "internalType": "uint16",
          "name": "_rate",
          "type": "uint16"
        }
      ],
      "name": "setRewardRateLockStake",
      "outputs": [],
      "stateMutability": "nonpayable",
      "type": "function"
    },
    {
      "inputs": [
        {
          "internalType": "address",
          "name": "_stakeProvaider",
          "type": "address"
        }
      ],
      "name": "setStakeProvaider",
      "outputs": [],
      "stateMutability": "nonpayable",
      "type": "function"
    },
    {
      "inputs": [
        {
          "internalType": "address",
          "name": "_account",
          "type": "address"
        }
      ],
      "name": "stakeAmountOf",
      "outputs": [
        {
          "internalType": "uint256",
          "name": "",
          "type": "uint256"
        }
      ],
      "stateMutability": "view",
      "type": "function"
    },
    {
      "inputs": [
        {
          "internalType": "uint256",
          "name": "_amount",
          "type": "uint256"
        }
      ],
      "name": "stakeFlexible",
      "outputs": [],
      "stateMutability": "nonpayable",
      "type": "function"
    },
    {
      "inputs": [
        {
          "internalType": "uint256",
          "name": "",
          "type": "uint256"
        }
      ],
      "name": "stakeHolders",
      "outputs": [
        {
          "internalType": "address",
          "name": "",
          "type": "address"
        }
      ],
      "stateMutability": "view",
      "type": "function"
    },
    {
      "inputs": [
        {
          "internalType": "uint256",
          "name": "_amount",
          "type": "uint256"
        }
      ],
      "name": "stakeLock",
      "outputs": [],
      "stateMutability": "nonpayable",
      "type": "function"
    },
    {
      "inputs": [],
      "name": "stakeProvaider",
      "outputs": [
        {
          "internalType": "contract IERC20",
          "name": "",
          "type": "address"
        }
      ],
      "stateMutability": "view",
      "type": "function"
    },
    {
      "inputs": [
        {
          "internalType": "address",
          "name": "_account",
          "type": "address"
        }
      ],
      "name": "stakeTypeOf",
      "outputs": [
        {
          "internalType": "enum ArbistaleVault.TypeStake",
          "name": "",
          "type": "uint8"
        }
      ],
      "stateMutability": "view",
      "type": "function"
    },
    {
      "inputs": [
        {
          "internalType": "address",
          "name": "",
          "type": "address"
        }
      ],
      "name": "stakes",
      "outputs": [
        {
          "internalType": "uint256",
          "name": "amount",
          "type": "uint256"
        },
        {
          "internalType": "uint256",
          "name": "startTime",
          "type": "uint256"
        },
        {
          "internalType": "enum ArbistaleVault.TypeStake",
          "name": "typeStake",
          "type": "uint8"
        }
      ],
      "stateMutability": "view",
      "type": "function"
    },
    {
      "inputs": [
        {
          "internalType": "address",
          "name": "_tokenAddress",
          "type": "address"
        }
      ],
      "name": "stakingBalance",
      "outputs": [
        {
          "internalType": "uint256",
          "name": "",
          "type": "uint256"
        }
      ],
      "stateMutability": "view",
      "type": "function"
    },
    {
      "inputs": [],
      "name": "stakingLength",
      "outputs": [
        {
          "internalType": "uint256",
          "name": "",
          "type": "uint256"
        }
      ],
      "stateMutability": "view",
      "type": "function"
    },
    {
      "inputs": [
        {
          "internalType": "address",
          "name": "",
          "type": "address"
        }
      ],
      "name": "totalStakedToken",
      "outputs": [
        {
          "internalType": "uint256",
          "name": "",
          "type": "uint256"
        }
      ],
      "stateMutability": "view",
      "type": "function"
    },
    {
      "inputs": [],
      "name": "unstake",
      "outputs": [],
      "stateMutability": "nonpayable",
      "type": "function"
    },
    {
      "inputs": [],
      "name": "withdraw",
      "outputs": [],
      "stateMutability": "nonpayable",
      "type": "function"
    }
  ],
  "bytecode": "0x60806040526000600155600060025562093a80600355620151806004553480156200002957600080fd5b50604051620024bd380380620024bd8339810160408190526200004c9162000160565b60016000556200005b620000d1565b6002819055600485905560038490556005805461ffff858116620100000263ffffffff1990921690851617179055600a80546001600160a01b038089166001600160a01b031992831617909255600b8054928a1692909116919091179055620000c46001600055565b50505050505050620001da565b60026000541415620001295760405162461bcd60e51b815260206004820152601f60248201527f5265656e7472616e637947756172643a207265656e7472616e742063616c6c00604482015260640160405180910390fd5b6002600055565b80516001600160a01b03811681146200014857600080fd5b919050565b805161ffff811681146200014857600080fd5b600080600080600080600060e0888a0312156200017c57600080fd5b620001878862000130565b9650620001976020890162000130565b95506040880151945060608801519350620001b5608089016200014d565b9250620001c560a089016200014d565b915060c0880151905092959891949750929550565b6122d380620001ea6000396000f3fe608060405234801561001057600080fd5b50600436106102925760003560e01c80638adc0a8511610160578063bac3d04f116100d8578063d18e81b31161008c578063da80325b11610071578063da80325b1461056e578063dc3a83cd14610581578063f834da181461058957600080fd5b8063d18e81b314610555578063d477f05f1461055b57600080fd5b8063c9122b43116100bd578063c9122b4314610526578063cb381aa314610539578063d0761c341461054c57600080fd5b8063bac3d04f1461050b578063c45618f51461051357600080fd5b806391cca3db1161012f578063af81c5b911610114578063af81c5b9146104c5578063b0fd4eda146104d8578063b93b546d146104f857600080fd5b806391cca3db1461049f578063acad41a4146104b257600080fd5b80638adc0a851461044b5780638b87b20e1461045e5780638bad33051461046c578063908f2e2a1461048c57600080fd5b80634c3810881161020e5780636fc14837116101c25780637805a386116101a75780637805a386146103fa5780637eed98591461040d5780638436c4001461042057600080fd5b80636fc14837146103df57806372fa98cd146103f257600080fd5b8063542eb745116101f3578063542eb745146103a05780635a70f9c7146103b357806363512159146103bc57600080fd5b80634c3810881461037a57806352e354681461038d57600080fd5b80632451f60d11610265578063315eb5d81161024a578063315eb5d8146103225780633ccfd60b1461034957806345bc78ab1461035157600080fd5b80632451f60d146103055780632def66201461031a57600080fd5b8063014231a81461029757806304554443146102b357806316934fc4146102bc5780631fe0fc2a146102fd575b600080fd5b6102a060015481565b6040519081526020015b60405180910390f35b6102a060035481565b6102ee6102ca36600461207d565b60066020526000908152604090208054600182015460029092015490919060ff1683565b6040516102aa939291906120d2565b6009546102a0565b6103186103133660046120ed565b61059c565b005b610318610603565b6005546103369062010000900461ffff1681565b60405161ffff90911681526020016102aa565b6103186108e4565b6102a061035f36600461207d565b6001600160a01b031660009081526008602052604090205490565b6102a061038836600461207d565b610965565b6102a061039b36600461207d565b6109d8565b6103186103ae366004612111565b610b3d565b6102a060045481565b6103cf6103ca36600461207d565b610dc6565b60405190151581526020016102aa565b6103186103ed366004612111565b610e2a565b610318610e71565b610318610408366004612111565b61100a565b61031861041b366004612111565b61118d565b600b54610433906001600160a01b031681565b6040516001600160a01b0390911681526020016102aa565b610318610459366004612111565b6111d4565b6005546103369061ffff1681565b6102a061047a36600461207d565b60076020526000908152604090205481565b6102a061049a36600461207d565b61121b565b600a54610433906001600160a01b031681565b6104336104c0366004612111565b611337565b6103186104d336600461212a565b611361565b6104eb6104e636600461207d565b6113f8565b6040516102aa9190612156565b61031861050636600461212a565b611471565b6103186114f9565b610318610521366004612111565b6115c3565b610318610534366004612111565b61160a565b61031861054736600461207d565b611715565b6102a060025481565b426102a0565b61031861056936600461207d565b611786565b61031861057c3660046120ed565b6117f7565b610318611851565b610318610597366004612111565b611864565b600a546001600160a01b031633146105e35760405162461bcd60e51b8152602060048201526005602482015264576875743f60d81b60448201526064015b60405180910390fd5b6005805461ffff909216620100000263ffff000019909216919091179055565b61060b6118f0565b61061433610dc6565b6106605760405162461bcd60e51b815260206004820152601660248201527f4163636f756e74206e6f74207374616b6520796574210000000000000000000060448201526064016105da565b3360009081526006602052604081206002015460ff1660018111156106875761068761209a565b14156106d55760405162461bcd60e51b815260206004820152601960248201527f43616e6e6f7420756e7374616b65206c6f636b207374616b650000000000000060448201526064016105da565b33600090815260066020908152604080832054600b546001600160a01b0316845260089092529091205481111561071557610710338261194a565b6107e1565b600b5460405163a9059cbb60e01b8152336004820152602481018390526001600160a01b039091169063a9059cbb90604401602060405180830381600087803b15801561076157600080fd5b505af1158015610775573d6000803e3d6000fd5b505050506040513d601f19601f820116820180604052508101906107999190612164565b50600b546001600160a01b03166000818152600860205260409020546107e191906107c590849061219c565b6001600160a01b03909116600090815260086020526040902055565b600b546001600160a01b0316600081815260076020526040902054610828919061080c90849061219c565b6001600160a01b03909116600090815260076020526040902055565b33600090815260066020526040812081815560018101829055600201805460ff191690555b6009548110156108d6576009818154811061086a5761086a6121b3565b6000918252602090912001546001600160a01b03163314156108c45760098181548110610899576108996121b3565b6000918252602090912001805473ffffffffffffffffffffffffffffffffffffffff191690556108d6565b6108cf6001826121c9565b905061084d565b50506108e26001600055565b565b600a546001600160a01b031633146109265760405162461bcd60e51b8152602060048201526005602482015264576875743f60d81b60448201526064016105da565b61092e6118f0565b60405133904780156108fc02916000818181858888f1935050505015801561095a573d6000803e3d6000fd5b506108e26001600055565b600061097082610dc6565b6109bc5760405162461bcd60e51b815260206004820152600f60248201527f4e6f7468696e67207374616b65212e000000000000000000000000000000000060448201526064016105da565b506001600160a01b031660009081526006602052604090205490565b6000806001600160a01b03831660009081526006602052604090206002015460ff166001811115610a0b57610a0b61209a565b14610a7e5760405162461bcd60e51b815260206004820152602160248201527f4163636f756e74206e6f74207374616b65206f6e206c6f636b207374616b652160448201527f2e0000000000000000000000000000000000000000000000000000000000000060648201526084016105da565b6003546001600160a01b0383166000908152600660205260408120600101544292610aa8916121c9565b905081811115610abc575060009392505050565b6005546001600160a01b03851660009081526006602052604081205461ffff909216916103e890610aee9084906121e1565b610af89190612200565b6001600160a01b03871660009081526006602052604081206002015491925090610b2690889060ff166119db565b9050610b328282611af2565b979650505050505050565b610b456118f0565b60008111610b825760405162461bcd60e51b815260206004820152600a6024820152690616d6f756e74203d20360b41b60448201526064016105da565b806002541015610bd45760405162461bcd60e51b815260206004820152601860248201527f546f6b656e7320657863656564206d6178207374616b6521000000000000000060448201526064016105da565b60006103e8600154610be69190612200565b610bf090836121e1565b610bfa90836121c9565b9050610c0533610dc6565b610ccb576040805160608101825282815242602082015290810160015b90523360009081526006602090815260409182902083518155908301516001808301919091559183015160028201805492939192909160ff19909116908381811115610c7057610c7061209a565b021790555050600980546001810182556000919091527f6e1540171b6c0c960b71a7020d9f60077f6af931a8bbf590da0223dacf75c7af01805473ffffffffffffffffffffffffffffffffffffffff19163317905550610d4a565b60013360009081526006602052604090206002015460ff166001811115610cf457610cf461209a565b14610d415760405162461bcd60e51b815260206004820152601f60248201527f4163636f756e74206973206f6e207374616b652074797065206c6f636b212e0060448201526064016105da565b610d4a81611b05565b600b54610d62906001600160a01b0316333085611c38565b600b546001600160a01b0316600081815260086020526040902054610d8d91906107c59085906121c9565b600b546001600160a01b0316600081815260076020526040902054610db8919061080c9084906121c9565b50610dc36001600055565b50565b6000805b600954811015610e215760098181548110610de757610de76121b3565b6000918252602090912001546001600160a01b0384811691161415610e0f5750600192915050565b610e1a6001826121c9565b9050610dca565b50600092915050565b600a546001600160a01b03163314610e6c5760405162461bcd60e51b8152602060048201526005602482015264576875743f60d81b60448201526064016105da565b600255565b610e796118f0565b610e8233610dc6565b610ece5760405162461bcd60e51b815260206004820152601660248201527f4163636f756e74206e6f74207374616b6520796574210000000000000000000060448201526064016105da565b6000610ed9336109d8565b905080610f285760405162461bcd60e51b815260206004820152601a60248201527f5374616b652074696d65206973206e6f74206f7665722079657400000000000060448201526064016105da565b33600081815260066020526040902054610f4d9190610f489084906121c9565b611cd6565b600b54336000908152600660209081526040808320546001600160a01b03909416808452600790925290912054610f879261080c9161219c565b33600090815260066020526040812081815560018101829055600201805460ff191690555b6009548110156108d65760098181548110610fc957610fc96121b3565b6000918252602090912001546001600160a01b0316331415610ff85760098181548110610899576108996121b3565b6110036001826121c9565b9050610fac565b6110126118f0565b6000811161104f5760405162461bcd60e51b815260206004820152600a6024820152690616d6f756e74203d20360b41b60448201526064016105da565b8060025410156110a15760405162461bcd60e51b815260206004820152601860248201527f546f6b656e7320657863656564206d6178207374616b6521000000000000000060448201526064016105da565b60006103e86001546110b39190612200565b6110bd90836121e1565b6110c790836121c9565b90506110d233610dc6565b6110f357604080516060810182528281524260208201529081016000610c22565b3360009081526006602052604081206002015460ff16600181111561111a5761111a61209a565b14610d415760405162461bcd60e51b815260206004820152602360248201527f4163636f756e74206973206f6e207374616b65207479706520666c657869626c60448201527f65212e000000000000000000000000000000000000000000000000000000000060648201526084016105da565b600a546001600160a01b031633146111cf5760405162461bcd60e51b8152602060048201526005602482015264576875743f60d81b60448201526064016105da565b600455565b600a546001600160a01b031633146112165760405162461bcd60e51b8152602060048201526005602482015264576875743f60d81b60448201526064016105da565b600355565b600060016001600160a01b03831660009081526006602052604090206002015460ff16600181111561124f5761124f61209a565b146112c25760405162461bcd60e51b815260206004820152602560248201527f4163636f756e74206e6f74207374616b65206f6e20666c657869626c6520737460448201527f616b65212e00000000000000000000000000000000000000000000000000000060648201526084016105da565b6004546001600160a01b03831660009081526006602052604081206001015442926112ec916121c9565b905081811115611300575060009392505050565b6005546001600160a01b0385166000908152600660205260408120546201000090920461ffff16916103e890610aee9084906121e1565b6009818154811061134757600080fd5b6000918252602090912001546001600160a01b0316905081565b600a546001600160a01b031633146113a35760405162461bcd60e51b8152602060048201526005602482015264576875743f60d81b60448201526064016105da565b6113ab6118f0565b6113c06001600160a01b038316333084611c38565b6001600160a01b0382166000908152600860205260409020546113ea9083906107c59084906121c9565b6113f46001600055565b5050565b600061140382610dc6565b61144f5760405162461bcd60e51b815260206004820152600f60248201527f4e6f7468696e67207374616b65212e000000000000000000000000000000000060448201526064016105da565b506001600160a01b031660009081526006602052604090206002015460ff1690565b600a546001600160a01b031633146114b35760405162461bcd60e51b8152602060048201526005602482015264576875743f60d81b60448201526064016105da565b6114bb6118f0565b6114cf6001600160a01b0383163383611d34565b6001600160a01b0382166000908152600860205260409020546113ea9083906107c590849061219c565b6115016118f0565b600061150c336109d8565b905061151733610dc6565b6115635760405162461bcd60e51b815260206004820152601660248201527f4163636f756e74206e6f74207374616b6520796574210000000000000000000060448201526064016105da565b806115b05760405162461bcd60e51b815260206004820152601a60248201527f5374616b652074696d65206973206e6f74206f7665722079657400000000000060448201526064016105da565b6115ba3382611cd6565b61095a33611d64565b600a546001600160a01b031633146116055760405162461bcd60e51b8152602060048201526005602482015264576875743f60d81b60448201526064016105da565b600155565b600a546001600160a01b0316331461164c5760405162461bcd60e51b8152602060048201526005602482015264576875743f60d81b60448201526064016105da565b6116546118f0565b600b546040516323b872dd60e01b81526001600160a01b039091166004820181905230602483015260448201839052906323b872dd90606401602060405180830381600087803b1580156116a757600080fd5b505af11580156116bb573d6000803e3d6000fd5b505050506040513d601f19601f820116820180604052508101906116df9190612164565b50600b546001600160a01b031660008181526008602052604090205461170b91906107c59084906121c9565b610dc36001600055565b600a546001600160a01b031633146117575760405162461bcd60e51b8152602060048201526005602482015264576875743f60d81b60448201526064016105da565b600b805473ffffffffffffffffffffffffffffffffffffffff19166001600160a01b0392909216919091179055565b600a546001600160a01b031633146117c85760405162461bcd60e51b8152602060048201526005602482015264576875743f60d81b60448201526064016105da565b600a805473ffffffffffffffffffffffffffffffffffffffff19166001600160a01b0392909216919091179055565b600a546001600160a01b031633146118395760405162461bcd60e51b8152602060048201526005602482015264576875743f60d81b60448201526064016105da565b6005805461ffff191661ffff92909216919091179055565b6118596118f0565b600061150c3361121b565b600a546001600160a01b031633146118a65760405162461bcd60e51b8152602060048201526005602482015264576875743f60d81b60448201526064016105da565b6118ae6118f0565b600b546118c5906001600160a01b03168083611d34565b600b546001600160a01b031660008181526008602052604090205461170b91906107c590849061219c565b600260005414156119435760405162461bcd60e51b815260206004820152601f60248201527f5265656e7472616e637947756172643a207265656e7472616e742063616c6c0060448201526064016105da565b6002600055565b600b546040516323b872dd60e01b81526001600160a01b03918216600482018190529184166024820152604481018390526323b872dd90606401602060405180830381600087803b15801561199e57600080fd5b505af11580156119b2573d6000803e3d6000fd5b505050506040513d601f19601f820116820180604052508101906119d69190612164565b505050565b60008160018111156119ef576119ef61209a565b6001600160a01b03841660009081526006602052604090206002015460ff166001811115611a1f57611a1f61209a565b14611a6c5760405162461bcd60e51b815260206004820181905260248201527f4163636f756e74206e6f74207374616b65206f6e20746869732074797065212e60448201526064016105da565b4260006001846001811115611a8357611a8361209a565b14611a9057600354611a94565b6004545b6001600160a01b03861660009081526006602052604081206001015491925090611abf9083906121c9565b9050600082611ace8584611dd7565b611ad89190612200565b9050611ae5816001611de3565b9450505050505b92915050565b6000611afe82846121e1565b9392505050565b611b0e33610dc6565b611b5a5760405162461bcd60e51b815260206004820152601c60248201527f4164647265737320617265206e6f74207374616b6520686f6c6465720000000060448201526064016105da565b806002541015611bac5760405162461bcd60e51b815260206004820152601860248201527f546f6b656e7320657863656564206d6178207374616b6521000000000000000060448201526064016105da565b33600090815260066020526040902054611bc69082611de3565b33600090815260066020908152604080832093845542600190940193909355600b546001600160a01b0316808352600890915291902054611c0d91906107c59084906121c9565b600b546001600160a01b0316600081815260076020526040902054610dc3919061080c9084906121c9565b6040516001600160a01b0380851660248301528316604482015260648101829052611cd09085906323b872dd60e01b906084015b60408051601f198184030181529190526020810180517bffffffffffffffffffffffffffffffffffffffffffffffffffffffff167fffffffff0000000000000000000000000000000000000000000000000000000090931692909217909152611def565b50505050565b600b546001600160a01b031660009081526008602052604090205481811015611d03576119d6838361194a565b600b54611d1a906001600160a01b03168484611d34565b600b546119d6906001600160a01b03166107c5848461219c565b6040516001600160a01b0383166024820152604481018290526119d690849063a9059cbb60e01b90606401611c6c565b611d6d81610dc6565b1515600114611dbe5760405162461bcd60e51b815260206004820152601c60248201527f4164647265737320617265206e6f74207374616b6520686f6c6465720000000060448201526064016105da565b5033600090815260066020526040902042600190910155565b6000611afe828461219c565b6000611afe82846121c9565b6000611e44826040518060400160405280602081526020017f5361666545524332303a206c6f772d6c6576656c2063616c6c206661696c6564815250856001600160a01b0316611ed49092919063ffffffff16565b8051909150156119d65780806020019051810190611e629190612164565b6119d65760405162461bcd60e51b815260206004820152602a60248201527f5361666545524332303a204552433230206f7065726174696f6e20646964206e60448201527f6f7420737563636565640000000000000000000000000000000000000000000060648201526084016105da565b6060611ee38484600085611eeb565b949350505050565b606082471015611f635760405162461bcd60e51b815260206004820152602660248201527f416464726573733a20696e73756666696369656e742062616c616e636520666f60448201527f722063616c6c000000000000000000000000000000000000000000000000000060648201526084016105da565b600080866001600160a01b03168587604051611f7f919061224e565b60006040518083038185875af1925050503d8060008114611fbc576040519150601f19603f3d011682016040523d82523d6000602084013e611fc1565b606091505b5091509150610b328783838760608315612039578251612032576001600160a01b0385163b6120325760405162461bcd60e51b815260206004820152601d60248201527f416464726573733a2063616c6c20746f206e6f6e2d636f6e747261637400000060448201526064016105da565b5081611ee3565b611ee3838381511561204e5781518083602001fd5b8060405162461bcd60e51b81526004016105da919061226a565b6001600160a01b0381168114610dc357600080fd5b60006020828403121561208f57600080fd5b8135611afe81612068565b634e487b7160e01b600052602160045260246000fd5b600281106120ce57634e487b7160e01b600052602160045260246000fd5b9052565b8381526020810183905260608101611ee360408301846120b0565b6000602082840312156120ff57600080fd5b813561ffff81168114611afe57600080fd5b60006020828403121561212357600080fd5b5035919050565b6000806040838503121561213d57600080fd5b823561214881612068565b946020939093013593505050565b60208101611aec82846120b0565b60006020828403121561217657600080fd5b81518015158114611afe57600080fd5b634e487b7160e01b600052601160045260246000fd5b6000828210156121ae576121ae612186565b500390565b634e487b7160e01b600052603260045260246000fd5b600082198211156121dc576121dc612186565b500190565b60008160001904831182151516156121fb576121fb612186565b500290565b60008261221d57634e487b7160e01b600052601260045260246000fd5b500490565b60005b8381101561223d578181015183820152602001612225565b83811115611cd05750506000910152565b60008251612260818460208701612222565b9190910192915050565b6020815260008251806020840152612289816040850160208701612222565b601f01601f1916919091016040019291505056fea2646970667358221220264392f05020047a2f314c16a31e2fe4efe801661f1e6e94a3c55faa1ab8444e64736f6c63430008090033",
  "linkReferences": {},
  "deployedLinkReferences": {}
}