{
  "_format": "hh-sol-artifact-1",
  "contractName": "Faucet",
  "sourceName": "contracts/faucet/basic.sol",
  "abi": [
    {
      "inputs": [
        {
          "internalType": "uint256",
          "name": "_amountFaucet",
          "type": "uint256"
        }
      ],
      "stateMutability": "nonpayable",
      "type": "constructor"
    },
    {
      "anonymous": false,
      "inputs": [
        {
          "indexed": false,
          "internalType": "address",
          "name": "",
          "type": "address"
        },
        {
          "indexed": false,
          "internalType": "uint256",
          "name": "",
          "type": "uint256"
        }
      ],
      "name": "Received",
      "type": "event"
    },
    {
      "stateMutability": "payable",
      "type": "fallback"
    },
    {
      "inputs": [],
      "name": "amountFaucet",
      "outputs": [
        {
          "internalType": "uint256",
          "name": "",
          "type": "uint256"
        }
      ],
      "stateMutability": "view",
      "type": "function"
    },
    {
      "inputs": [],
      "name": "cooldownFundTimeStamp",
      "outputs": [
        {
          "internalType": "uint256",
          "name": "",
          "type": "uint256"
        }
      ],
      "stateMutability": "view",
      "type": "function"
    },
    {
      "inputs": [
        {
          "internalType": "address",
          "name": "_user",
          "type": "address"
        }
      ],
      "name": "fundUser",
      "outputs": [],
      "stateMutability": "nonpayable",
      "type": "function"
    },
    {
      "inputs": [],
      "name": "getTimeStamp",
      "outputs": [
        {
          "internalType": "uint256",
          "name": "",
          "type": "uint256"
        }
      ],
      "stateMutability": "view",
      "type": "function"
    },
    {
      "inputs": [
        {
          "internalType": "uint256",
          "name": "_amunt",
          "type": "uint256"
        }
      ],
      "name": "setAmountFaucet",
      "outputs": [],
      "stateMutability": "nonpayable",
      "type": "function"
    },
    {
      "inputs": [
        {
          "internalType": "uint256",
          "name": "_interval",
          "type": "uint256"
        }
      ],
      "name": "setCooldownFund",
      "outputs": [],
      "stateMutability": "nonpayable",
      "type": "function"
    },
    {
      "inputs": [
        {
          "internalType": "address",
          "name": "",
          "type": "address"
        }
      ],
      "name": "userNextReward",
      "outputs": [
        {
          "internalType": "uint256",
          "name": "timestamp",
          "type": "uint256"
        }
      ],
      "stateMutability": "view",
      "type": "function"
    },
    {
      "stateMutability": "payable",
      "type": "receive"
    }
  ],
  "bytecode": "0x60806040526201518060005534801561001757600080fd5b5060405161059738038061059783398101604081905261003691610050565b600155600280546001600160a01b03191633179055610069565b60006020828403121561006257600080fd5b5051919050565b61051f806100786000396000f3fe6080604052600436106100745760003560e01c80639f01c86a1161004e5780639f01c86a14610160578063da235b2214610180578063e369b45914610193578063f7d1fe3f146101a9576100b4565b806326c40c68146100e95780636e3dd5691461010b5780638bba3d3214610133576100b4565b366100b457604080513381523460208201527f88a5966d370b9919b20f3e2c13ff65706f196a4e32cc2c12bf57088f8852587491015b60405180910390a1005b604080513381523460208201527f88a5966d370b9919b20f3e2c13ff65706f196a4e32cc2c12bf57088f8852587491016100aa565b3480156100f557600080fd5b50610109610104366004610461565b6101c9565b005b34801561011757600080fd5b5061012160005481565b60405190815260200160405180910390f35b34801561013f57600080fd5b5061012161014e366004610461565b60036020526000908152604090205481565b34801561016c57600080fd5b5061010961017b366004610491565b6103b9565b34801561018c57600080fd5b5042610121565b34801561019f57600080fd5b5061012160015481565b3480156101b557600080fd5b506101096101c4366004610491565b61040d565b6002546001600160a01b0316331461021d5760405162461bcd60e51b8152602060048201526012602482015271596f7520617265206e6f74206f776e65722160701b60448201526064015b60405180910390fd5b6001600160a01b038116600090815260036020526040902054610306576001546040516000916001600160a01b038416918381818185875af1925050503d8060008114610286576040519150601f19603f3d011682016040523d82523d6000602084013e61028b565b606091505b50509050806102dc5760405162461bcd60e51b815260206004820152601460248201527f4661696c656420746f2073656e642045746865720000000000000000000000006044820152606401610214565b6000546102e990426104aa565b6001600160a01b0383166000908152600360205260409020555050565b6001600160a01b038116600090815260036020526040902054421161036d5760405162461bcd60e51b815260206004820152601160248201527f55736572206f6e20636f6f6c646f776e210000000000000000000000000000006044820152606401610214565b6001546040516000916001600160a01b038416918381818185875af1925050503d8060008114610286576040519150601f19603f3d011682016040523d82523d6000602084013e61028b565b6002546001600160a01b031633146104085760405162461bcd60e51b8152602060048201526012602482015271596f7520617265206e6f74206f776e65722160701b6044820152606401610214565b600055565b6002546001600160a01b0316331461045c5760405162461bcd60e51b8152602060048201526012602482015271596f7520617265206e6f74206f776e65722160701b6044820152606401610214565b600155565b60006020828403121561047357600080fd5b81356001600160a01b038116811461048a57600080fd5b9392505050565b6000602082840312156104a357600080fd5b5035919050565b600082198211156104e4577f4e487b7100000000000000000000000000000000000000000000000000000000600052601160045260246000fd5b50019056fea264697066735822122022a5610f0c780cfb6da73ae6fc30b5856f985daa1265a2e4d3f6cc14f32494c964736f6c63430008090033",
  "linkReferences": {},
  "deployedLinkReferences": {}
}