{
  "_format": "hh-sol-artifact-1",
  "contractName": "StakeProvaider",
  "sourceName": "contracts/staking/token_provaider/ERC20Token.sol",
  "abi": [
    {
      "inputs": [],
      "stateMutability": "nonpayable",
      "type": "constructor"
    },
    {
      "anonymous": false,
      "inputs": [
        {
          "indexed": true,
          "internalType": "address",
          "name": "owner",
          "type": "address"
        },
        {
          "indexed": true,
          "internalType": "address",
          "name": "spender",
          "type": "address"
        },
        {
          "indexed": false,
          "internalType": "uint256",
          "name": "value",
          "type": "uint256"
        }
      ],
      "name": "Approval",
      "type": "event"
    },
    {
      "anonymous": false,
      "inputs": [
        {
          "indexed": true,
          "internalType": "address",
          "name": "previousOwner",
          "type": "address"
        },
        {
          "indexed": true,
          "internalType": "address",
          "name": "newOwner",
          "type": "address"
        }
      ],
      "name": "OwnershipTransferred",
      "type": "event"
    },
    {
      "anonymous": false,
      "inputs": [
        {
          "indexed": true,
          "internalType": "address",
          "name": "from",
          "type": "address"
        },
        {
          "indexed": true,
          "internalType": "address",
          "name": "to",
          "type": "address"
        },
        {
          "indexed": false,
          "internalType": "uint256",
          "name": "value",
          "type": "uint256"
        }
      ],
      "name": "Transfer",
      "type": "event"
    },
    {
      "inputs": [],
      "name": "_stakeService",
      "outputs": [
        {
          "internalType": "address",
          "name": "",
          "type": "address"
        }
      ],
      "stateMutability": "view",
      "type": "function"
    },
    {
      "inputs": [
        {
          "internalType": "address",
          "name": "owner",
          "type": "address"
        },
        {
          "internalType": "address",
          "name": "spender",
          "type": "address"
        }
      ],
      "name": "allowance",
      "outputs": [
        {
          "internalType": "uint256",
          "name": "",
          "type": "uint256"
        }
      ],
      "stateMutability": "view",
      "type": "function"
    },
    {
      "inputs": [
        {
          "internalType": "address",
          "name": "spender",
          "type": "address"
        },
        {
          "internalType": "uint256",
          "name": "amount",
          "type": "uint256"
        }
      ],
      "name": "approve",
      "outputs": [
        {
          "internalType": "bool",
          "name": "",
          "type": "bool"
        }
      ],
      "stateMutability": "nonpayable",
      "type": "function"
    },
    {
      "inputs": [
        {
          "internalType": "address",
          "name": "_stakeServiceAddress",
          "type": "address"
        }
      ],
      "name": "approveStakeService",
      "outputs": [
        {
          "internalType": "bool",
          "name": "",
          "type": "bool"
        }
      ],
      "stateMutability": "nonpayable",
      "type": "function"
    },
    {
      "inputs": [
        {
          "internalType": "address",
          "name": "account",
          "type": "address"
        }
      ],
      "name": "balanceOf",
      "outputs": [
        {
          "internalType": "uint256",
          "name": "",
          "type": "uint256"
        }
      ],
      "stateMutability": "view",
      "type": "function"
    },
    {
      "inputs": [
        {
          "internalType": "uint256",
          "name": "amount",
          "type": "uint256"
        }
      ],
      "name": "burn",
      "outputs": [
        {
          "internalType": "bool",
          "name": "",
          "type": "bool"
        }
      ],
      "stateMutability": "nonpayable",
      "type": "function"
    },
    {
      "inputs": [],
      "name": "decimals",
      "outputs": [
        {
          "internalType": "uint8",
          "name": "",
          "type": "uint8"
        }
      ],
      "stateMutability": "view",
      "type": "function"
    },
    {
      "inputs": [
        {
          "internalType": "uint256",
          "name": "amount",
          "type": "uint256"
        }
      ],
      "name": "mint",
      "outputs": [
        {
          "internalType": "bool",
          "name": "",
          "type": "bool"
        }
      ],
      "stateMutability": "nonpayable",
      "type": "function"
    },
    {
      "inputs": [],
      "name": "name",
      "outputs": [
        {
          "internalType": "string",
          "name": "",
          "type": "string"
        }
      ],
      "stateMutability": "view",
      "type": "function"
    },
    {
      "inputs": [],
      "name": "owner",
      "outputs": [
        {
          "internalType": "address",
          "name": "",
          "type": "address"
        }
      ],
      "stateMutability": "view",
      "type": "function"
    },
    {
      "inputs": [],
      "name": "renounceOwnership",
      "outputs": [],
      "stateMutability": "nonpayable",
      "type": "function"
    },
    {
      "inputs": [],
      "name": "symbol",
      "outputs": [
        {
          "internalType": "string",
          "name": "",
          "type": "string"
        }
      ],
      "stateMutability": "view",
      "type": "function"
    },
    {
      "inputs": [],
      "name": "totalSupply",
      "outputs": [
        {
          "internalType": "uint256",
          "name": "",
          "type": "uint256"
        }
      ],
      "stateMutability": "view",
      "type": "function"
    },
    {
      "inputs": [
        {
          "internalType": "address",
          "name": "recipient",
          "type": "address"
        },
        {
          "internalType": "uint256",
          "name": "amount",
          "type": "uint256"
        }
      ],
      "name": "transfer",
      "outputs": [
        {
          "internalType": "bool",
          "name": "",
          "type": "bool"
        }
      ],
      "stateMutability": "nonpayable",
      "type": "function"
    },
    {
      "inputs": [
        {
          "internalType": "address",
          "name": "sender",
          "type": "address"
        },
        {
          "internalType": "address",
          "name": "recipient",
          "type": "address"
        },
        {
          "internalType": "uint256",
          "name": "amount",
          "type": "uint256"
        }
      ],
      "name": "transferFrom",
      "outputs": [
        {
          "internalType": "bool",
          "name": "",
          "type": "bool"
        }
      ],
      "stateMutability": "nonpayable",
      "type": "function"
    },
    {
      "inputs": [
        {
          "internalType": "address",
          "name": "newOwner",
          "type": "address"
        }
      ],
      "name": "transferOwnership",
      "outputs": [],
      "stateMutability": "nonpayable",
      "type": "function"
    }
  ],
  "bytecode": "0x60c0604052600c60808190526b29b4b6b83632902a37b5b2b760a11b60a09081526200002f9160039190620002fb565b506040805180820190915260028082526114d560f21b60209092019182526200005b91600491620002fb565b506005805460ff191660099081179091556200007990600a620004b6565b6200008990633b9aca00620004ce565b6006553480156200009957600080fd5b50620000a533620002ab565b6000739ac64cc6e4415144c455bd8e4837fea55603e5c39050806001600160a01b031663c45a01556040518163ffffffff1660e01b815260040160206040518083038186803b158015620000f857600080fd5b505afa1580156200010d573d6000803e3d6000fd5b505050506040513d601f19601f82011682018060405250810190620001339190620004f0565b6001600160a01b031663c9c6539630836001600160a01b031663ad5c46486040518163ffffffff1660e01b815260040160206040518083038186803b1580156200017c57600080fd5b505afa15801562000191573d6000803e3d6000fd5b505050506040513d601f19601f82011682018060405250810190620001b79190620004f0565b6040516001600160e01b031960e085901b1681526001600160a01b03928316600482015291166024820152604401602060405180830381600087803b1580156200020057600080fd5b505af115801562000215573d6000803e3d6000fd5b505050506040513d601f19601f820116820180604052508101906200023b9190620004f0565b506006543060009081526002602090815260408083206001600160a01b0386168452825280832084905533808452600183528184208590559051938452927fddf252ad1be2c89b69c2b068fc378daa952ba7f163c4a11628f55a4df523b3ef910160405180910390a35062000558565b600080546001600160a01b038381166001600160a01b0319831681178455604051919092169283917f8be0079c531659141344cd1fd0a4f28419497f9722a3daafe3b4186f6b6457e09190a35050565b82805462000309906200051b565b90600052602060002090601f0160209004810192826200032d576000855562000378565b82601f106200034857805160ff191683800117855562000378565b8280016001018555821562000378579182015b82811115620003785782518255916020019190600101906200035b565b50620003869291506200038a565b5090565b5b808211156200038657600081556001016200038b565b634e487b7160e01b600052601160045260246000fd5b600181815b80851115620003f8578160001904821115620003dc57620003dc620003a1565b80851615620003ea57918102915b93841c9390800290620003bc565b509250929050565b6000826200041157506001620004b0565b816200042057506000620004b0565b8160018114620004395760028114620004445762000464565b6001915050620004b0565b60ff841115620004585762000458620003a1565b50506001821b620004b0565b5060208310610133831016604e8410600b841016171562000489575081810a620004b0565b620004958383620003b7565b8060001904821115620004ac57620004ac620003a1565b0290505b92915050565b6000620004c760ff84168362000400565b9392505050565b6000816000190483118215151615620004eb57620004eb620003a1565b500290565b6000602082840312156200050357600080fd5b81516001600160a01b0381168114620004c757600080fd5b600181811c908216806200053057607f821691505b602082108114156200055257634e487b7160e01b600052602260045260246000fd5b50919050565b610e9980620005686000396000f3fe608060405234801561001057600080fd5b50600436106101005760003560e01c8063715018a611610097578063a9059cbb11610066578063a9059cbb14610219578063d6cc5aa21461022c578063dd62ed3e1461023f578063f2fde38b1461027857600080fd5b8063715018a6146101cf5780638da5cb5b146101d957806395d89b41146101fe578063a0712d681461020657600080fd5b8063313ce567116100d3578063313ce5671461016b57806342966c68146101805780634a1a8d9a1461019357806370a08231146101a657600080fd5b806306fdde0314610105578063095ea7b31461012357806318160ddd1461014657806323b872dd14610158575b600080fd5b61010d61028b565b60405161011a9190610c3a565b60405180910390f35b610136610131366004610ca6565b61031d565b604051901515815260200161011a565b6006545b60405190815260200161011a565b610136610166366004610cd0565b610334565b60055460405160ff909116815260200161011a565b61013661018e366004610d0c565b610394565b6101366101a1366004610d25565b610407565b61014a6101b4366004610d25565b6001600160a01b031660009081526001602052604090205490565b6101d76104a3565b005b6000546001600160a01b03165b6040516001600160a01b03909116815260200161011a565b61010d610509565b610136610214366004610d0c565b610518565b610136610227366004610ca6565b61057d565b6007546101e6906001600160a01b031681565b61014a61024d366004610d40565b6001600160a01b03918216600090815260026020908152604080832093909416825291909152205490565b6101d7610286366004610d25565b61058a565b60606003805461029a90610d73565b80601f01602080910402602001604051908101604052809291908181526020018280546102c690610d73565b80156103135780601f106102e857610100808354040283529160200191610313565b820191906000526020600020905b8154815290600101906020018083116102f657829003601f168201915b5050505050905090565b600061032a33848461066c565b5060019392505050565b6000610388843361038385604051806060016040528060288152602001610df4602891396001600160a01b038a16600090815260026020908152604080832033845290915290205491906107cb565b61066c565b5061032a8484846107f7565b600080546001600160a01b031633146103f45760405162461bcd60e51b815260206004820181905260248201527f4f776e61626c653a2063616c6c6572206973206e6f7420746865206f776e657260448201526064015b60405180910390fd5b6103fe33836109bc565b5060015b919050565b600080546001600160a01b031633146104625760405162461bcd60e51b815260206004820181905260248201527f4f776e61626c653a2063616c6c6572206973206e6f7420746865206f776e657260448201526064016103eb565b6007805473ffffffffffffffffffffffffffffffffffffffff19166001600160a01b03841617905560065461049a903090849061066c565b50600192915050565b6000546001600160a01b031633146104fd5760405162461bcd60e51b815260206004820181905260248201527f4f776e61626c653a2063616c6c6572206973206e6f7420746865206f776e657260448201526064016103eb565b6105076000610ae4565b565b60606004805461029a90610d73565b600080546001600160a01b031633146105735760405162461bcd60e51b815260206004820181905260248201527f4f776e61626c653a2063616c6c6572206973206e6f7420746865206f776e657260448201526064016103eb565b6103fe3383610b41565b600061049a3384846107f7565b6000546001600160a01b031633146105e45760405162461bcd60e51b815260206004820181905260248201527f4f776e61626c653a2063616c6c6572206973206e6f7420746865206f776e657260448201526064016103eb565b6001600160a01b0381166106605760405162461bcd60e51b815260206004820152602660248201527f4f776e61626c653a206e6577206f776e657220697320746865207a65726f206160448201527f646472657373000000000000000000000000000000000000000000000000000060648201526084016103eb565b61066981610ae4565b50565b60006001600160a01b0384166106e95760405162461bcd60e51b8152602060048201526024808201527f42455032303a20617070726f76652066726f6d20746865207a65726f2061646460448201527f726573730000000000000000000000000000000000000000000000000000000060648201526084016103eb565b6001600160a01b0383166107655760405162461bcd60e51b815260206004820152602260248201527f42455032303a20617070726f766520746f20746865207a65726f20616464726560448201527f737300000000000000000000000000000000000000000000000000000000000060648201526084016103eb565b6001600160a01b0384811660008181526002602090815260408083209488168084529482529182902086905590518581527f8c5be1e5ebec7d5bd14f71427d1e84f3dd0314c0f7b2291e5b200ac8c7c3b925910160405180910390a35060019392505050565b600081848411156107ef5760405162461bcd60e51b81526004016103eb9190610c3a565b505050900390565b6001600160a01b0383166108735760405162461bcd60e51b815260206004820152602560248201527f42455032303a207472616e736665722066726f6d20746865207a65726f20616460448201527f647265737300000000000000000000000000000000000000000000000000000060648201526084016103eb565b6001600160a01b0382166108ef5760405162461bcd60e51b815260206004820152602360248201527f42455032303a207472616e7366657220746f20746865207a65726f206164647260448201527f657373000000000000000000000000000000000000000000000000000000000060648201526084016103eb565b61092c81604051806060016040528060268152602001610e1c602691396001600160a01b03861660009081526001602052604090205491906107cb565b6001600160a01b03808516600090815260016020526040808220939093559084168152205461095b9082610c1b565b6001600160a01b0380841660008181526001602052604090819020939093559151908516907fddf252ad1be2c89b69c2b068fc378daa952ba7f163c4a11628f55a4df523b3ef906109af9085815260200190565b60405180910390a3505050565b6001600160a01b038216610a385760405162461bcd60e51b815260206004820152602160248201527f42455032303a206275726e2066726f6d20746865207a65726f2061646472657360448201527f730000000000000000000000000000000000000000000000000000000000000060648201526084016103eb565b610a7581604051806060016040528060228152602001610e42602291396001600160a01b03851660009081526001602052604090205491906107cb565b6001600160a01b038316600090815260016020526040902055600654610a9b9082610c2e565b6006556040518181526000906001600160a01b038416907fddf252ad1be2c89b69c2b068fc378daa952ba7f163c4a11628f55a4df523b3ef906020015b60405180910390a35050565b600080546001600160a01b0383811673ffffffffffffffffffffffffffffffffffffffff19831681178455604051919092169283917f8be0079c531659141344cd1fd0a4f28419497f9722a3daafe3b4186f6b6457e09190a35050565b6001600160a01b038216610b975760405162461bcd60e51b815260206004820152601f60248201527f42455032303a206d696e7420746f20746865207a65726f20616464726573730060448201526064016103eb565b600654610ba49082610c1b565b6006556001600160a01b038216600090815260016020526040902054610bca9082610c1b565b6001600160a01b0383166000818152600160205260408082209390935591519091907fddf252ad1be2c89b69c2b068fc378daa952ba7f163c4a11628f55a4df523b3ef90610ad89085815260200190565b6000610c278284610dc4565b9392505050565b6000610c278284610ddc565b600060208083528351808285015260005b81811015610c6757858101830151858201604001528201610c4b565b81811115610c79576000604083870101525b50601f01601f1916929092016040019392505050565b80356001600160a01b038116811461040257600080fd5b60008060408385031215610cb957600080fd5b610cc283610c8f565b946020939093013593505050565b600080600060608486031215610ce557600080fd5b610cee84610c8f565b9250610cfc60208501610c8f565b9150604084013590509250925092565b600060208284031215610d1e57600080fd5b5035919050565b600060208284031215610d3757600080fd5b610c2782610c8f565b60008060408385031215610d5357600080fd5b610d5c83610c8f565b9150610d6a60208401610c8f565b90509250929050565b600181811c90821680610d8757607f821691505b60208210811415610da857634e487b7160e01b600052602260045260246000fd5b50919050565b634e487b7160e01b600052601160045260246000fd5b60008219821115610dd757610dd7610dae565b500190565b600082821015610dee57610dee610dae565b50039056fe42455032303a207472616e7366657220616d6f756e74206578636565647320616c6c6f77616e636542455032303a207472616e7366657220616d6f756e7420657863656564732062616c616e636542455032303a206275726e20616d6f756e7420657863656564732062616c616e6365a2646970667358221220444bef85934d45bd4f43b243816aac92fcc2fa5b58e6786188566c5aa97c740964736f6c63430008090033",
  "linkReferences": {},
  "deployedLinkReferences": {}
}