{
  "_format": "hh-sol-artifact-1",
  "contractName": "Locker",
  "sourceName": "contracts/lock_token/LockToken.sol",
  "abi": [
    {
      "inputs": [
        {
          "internalType": "address",
          "name": "_feeReciver",
          "type": "address"
        },
        {
          "internalType": "uint256",
          "name": "_ethFee",
          "type": "uint256"
        }
      ],
      "stateMutability": "nonpayable",
      "type": "constructor"
    },
    {
      "anonymous": false,
      "inputs": [
        {
          "indexed": true,
          "internalType": "address",
          "name": "previousOwner",
          "type": "address"
        },
        {
          "indexed": true,
          "internalType": "address",
          "name": "newOwner",
          "type": "address"
        }
      ],
      "name": "OwnershipTransferred",
      "type": "event"
    },
    {
      "inputs": [
        {
          "internalType": "address",
          "name": "_token",
          "type": "address"
        }
      ],
      "name": "chekBalance",
      "outputs": [
        {
          "internalType": "uint256",
          "name": "",
          "type": "uint256"
        }
      ],
      "stateMutability": "view",
      "type": "function"
    },
    {
      "inputs": [],
      "name": "ethFee",
      "outputs": [
        {
          "internalType": "uint256",
          "name": "",
          "type": "uint256"
        }
      ],
      "stateMutability": "view",
      "type": "function"
    },
    {
      "inputs": [
        {
          "internalType": "uint256",
          "name": "lockId",
          "type": "uint256"
        },
        {
          "internalType": "uint256",
          "name": "newUnlockTime",
          "type": "uint256"
        }
      ],
      "name": "extendLockTime",
      "outputs": [],
      "stateMutability": "nonpayable",
      "type": "function"
    },
    {
      "inputs": [],
      "name": "feeReceiver",
      "outputs": [
        {
          "internalType": "address",
          "name": "",
          "type": "address"
        }
      ],
      "stateMutability": "view",
      "type": "function"
    },
    {
      "inputs": [
        {
          "internalType": "address",
          "name": "tokenOrPool",
          "type": "address"
        }
      ],
      "name": "findLock",
      "outputs": [
        {
          "internalType": "uint256[]",
          "name": "",
          "type": "uint256[]"
        }
      ],
      "stateMutability": "view",
      "type": "function"
    },
    {
      "inputs": [
        {
          "internalType": "uint256",
          "name": "lockId",
          "type": "uint256"
        },
        {
          "internalType": "uint256",
          "name": "amountToIncrement",
          "type": "uint256"
        }
      ],
      "name": "increaseLockAmount",
      "outputs": [],
      "stateMutability": "nonpayable",
      "type": "function"
    },
    {
      "inputs": [],
      "name": "lockLPNonce",
      "outputs": [
        {
          "internalType": "uint256",
          "name": "",
          "type": "uint256"
        }
      ],
      "stateMutability": "view",
      "type": "function"
    },
    {
      "inputs": [
        {
          "internalType": "address",
          "name": "factoryAddress",
          "type": "address"
        },
        {
          "internalType": "address",
          "name": "lpToken",
          "type": "address"
        },
        {
          "internalType": "uint256",
          "name": "amount",
          "type": "uint256"
        },
        {
          "internalType": "uint256",
          "name": "unlockTime",
          "type": "uint256"
        },
        {
          "internalType": "address payable",
          "name": "owner",
          "type": "address"
        }
      ],
      "name": "lockLiquidity",
      "outputs": [
        {
          "internalType": "uint256",
          "name": "lockId",
          "type": "uint256"
        }
      ],
      "stateMutability": "payable",
      "type": "function"
    },
    {
      "inputs": [],
      "name": "lockNonce",
      "outputs": [
        {
          "internalType": "uint256",
          "name": "",
          "type": "uint256"
        }
      ],
      "stateMutability": "view",
      "type": "function"
    },
    {
      "inputs": [
        {
          "internalType": "address",
          "name": "token",
          "type": "address"
        },
        {
          "internalType": "uint256",
          "name": "amount",
          "type": "uint256"
        },
        {
          "internalType": "uint256",
          "name": "unlockTime",
          "type": "uint256"
        },
        {
          "internalType": "address payable",
          "name": "owner",
          "type": "address"
        }
      ],
      "name": "lockToken",
      "outputs": [
        {
          "internalType": "uint256",
          "name": "lockId",
          "type": "uint256"
        }
      ],
      "stateMutability": "payable",
      "type": "function"
    },
    {
      "inputs": [],
      "name": "lockTokenNonce",
      "outputs": [
        {
          "internalType": "uint256",
          "name": "",
          "type": "uint256"
        }
      ],
      "stateMutability": "view",
      "type": "function"
    },
    {
      "inputs": [],
      "name": "owner",
      "outputs": [
        {
          "internalType": "address",
          "name": "",
          "type": "address"
        }
      ],
      "stateMutability": "view",
      "type": "function"
    },
    {
      "inputs": [],
      "name": "renounceOwnership",
      "outputs": [],
      "stateMutability": "nonpayable",
      "type": "function"
    },
    {
      "inputs": [
        {
          "internalType": "uint256",
          "name": "newEthFee",
          "type": "uint256"
        }
      ],
      "name": "setEthFee",
      "outputs": [],
      "stateMutability": "nonpayable",
      "type": "function"
    },
    {
      "inputs": [
        {
          "internalType": "address",
          "name": "newFeeReceiver",
          "type": "address"
        }
      ],
      "name": "setFeeReceiver",
      "outputs": [],
      "stateMutability": "nonpayable",
      "type": "function"
    },
    {
      "inputs": [
        {
          "internalType": "uint256",
          "name": "",
          "type": "uint256"
        }
      ],
      "name": "tokenLocks",
      "outputs": [
        {
          "internalType": "address",
          "name": "token",
          "type": "address"
        },
        {
          "internalType": "uint256",
          "name": "amount",
          "type": "uint256"
        },
        {
          "internalType": "uint256",
          "name": "unlockTime",
          "type": "uint256"
        },
        {
          "internalType": "address",
          "name": "owner",
          "type": "address"
        },
        {
          "internalType": "bool",
          "name": "isLp",
          "type": "bool"
        }
      ],
      "stateMutability": "view",
      "type": "function"
    },
    {
      "inputs": [
        {
          "internalType": "uint256",
          "name": "lockId",
          "type": "uint256"
        },
        {
          "internalType": "address",
          "name": "newOwner",
          "type": "address"
        }
      ],
      "name": "transferLock",
      "outputs": [],
      "stateMutability": "nonpayable",
      "type": "function"
    },
    {
      "inputs": [
        {
          "internalType": "address",
          "name": "newOwner",
          "type": "address"
        }
      ],
      "name": "transferOwnership",
      "outputs": [],
      "stateMutability": "nonpayable",
      "type": "function"
    },
    {
      "inputs": [
        {
          "internalType": "address",
          "name": "user",
          "type": "address"
        },
        {
          "internalType": "uint256",
          "name": "index",
          "type": "uint256"
        }
      ],
      "name": "userLockAt",
      "outputs": [
        {
          "internalType": "uint256",
          "name": "",
          "type": "uint256"
        }
      ],
      "stateMutability": "view",
      "type": "function"
    },
    {
      "inputs": [
        {
          "internalType": "address",
          "name": "user",
          "type": "address"
        }
      ],
      "name": "userLocksLength",
      "outputs": [
        {
          "internalType": "uint256",
          "name": "",
          "type": "uint256"
        }
      ],
      "stateMutability": "view",
      "type": "function"
    },
    {
      "inputs": [
        {
          "internalType": "uint256",
          "name": "lockId",
          "type": "uint256"
        }
      ],
      "name": "withdraw",
      "outputs": [],
      "stateMutability": "nonpayable",
      "type": "function"
    },
    {
      "inputs": [
        {
          "internalType": "uint256",
          "name": "lockId",
          "type": "uint256"
        },
        {
          "internalType": "uint256",
          "name": "amount",
          "type": "uint256"
        }
      ],
      "name": "withdrawPartially",
      "outputs": [],
      "stateMutability": "nonpayable",
      "type": "function"
    }
  ],
  "bytecode": "0x60806040526001600755600160085560016009553480156200002057600080fd5b50604051620021a4380380620021a48339810160408190526200004391620000cf565b600160005562000053336200007d565b600280546001600160a01b0319166001600160a01b0393909316929092179091556003556200010b565b600180546001600160a01b038381166001600160a01b0319831681179093556040519116919082907f8be0079c531659141344cd1fd0a4f28419497f9722a3daafe3b4186f6b6457e090600090a35050565b60008060408385031215620000e357600080fd5b82516001600160a01b0381168114620000fb57600080fd5b6020939093015192949293505050565b612089806200011b6000396000f3fe6080604052600436106101755760003560e01c8063a581a815116100cb578063b577404c1161007f578063c28aa3d811610059578063c28aa3d814610431578063efdcd97414610451578063f2fde38b1461047157600080fd5b8063b577404c146103db578063b5a9096e146103fb578063b6fffbf01461041157600080fd5b8063a6955857116100b0578063a69558571461037b578063b3f006741461039b578063b48dd3be146103bb57600080fd5b8063a581a81514610338578063a5f218bf1461036557600080fd5b80634cf1115d1161012d578063715018a611610107578063715018a6146102615780638da5cb5b14610276578063946ca949146102a857600080fd5b80634cf1115d14610225578063589516261461023b5780635f101dba1461024e57600080fd5b8063364963451161015e57806336496345146101cf5780633b624032146101e55780633f6738a91461020557600080fd5b806324e2a8211461017a5780632e1a7d4d146101ad575b600080fd5b34801561018657600080fd5b5061019a610195366004611d4c565b610491565b6040519081526020015b60405180910390f35b3480156101b957600080fd5b506101cd6101c8366004611d78565b6104bc565b005b3480156101db57600080fd5b5061019a60095481565b3480156101f157600080fd5b506101cd610200366004611d91565b610700565b34801561021157600080fd5b506101cd610220366004611d78565b6107fd565b34801561023157600080fd5b5061019a60035481565b61019a610249366004611db3565b61085c565b61019a61025c366004611e12565b610b7e565b34801561026d57600080fd5b506101cd610e49565b34801561028257600080fd5b506001546001600160a01b03165b6040516001600160a01b0390911681526020016101a4565b3480156102b457600080fd5b506103016102c3366004611d78565b60046020526000908152604090208054600182015460028301546003909301546001600160a01b03928316939192811690600160a01b900460ff1685565b604080516001600160a01b03968716815260208101959095528401929092529092166060820152901515608082015260a0016101a4565b34801561034457600080fd5b50610358610353366004611e5c565b610eaf565b6040516101a49190611e80565b34801561037157600080fd5b5061019a60085481565b34801561038757600080fd5b506101cd610396366004611d91565b610f1b565b3480156103a757600080fd5b50600254610290906001600160a01b031681565b3480156103c757600080fd5b506101cd6103d6366004611ec4565b61111d565b3480156103e757600080fd5b5061019a6103f6366004611e5c565b61125e565b34801561040757600080fd5b5061019a60075481565b34801561041d57600080fd5b506101cd61042c366004611d91565b6112f1565b34801561043d57600080fd5b5061019a61044c366004611e5c565b611495565b34801561045d57600080fd5b506101cd61046c366004611e5c565b6114b6565b34801561047d57600080fd5b506101cd61048c366004611e5c565b611532565b6001600160a01b03821660009081526006602052604081206104b39083611611565b90505b92915050565b6104c461161d565b600081815260046020526040902060038101548291906001600160a01b031633146105365760405162461bcd60e51b815260206004820152601b60248201527f4e4f20414354495645204c4f434b204f52204e4f54204f574e4552000000000060448201526064015b60405180910390fd5b600083815260046020908152604091829020825160a08101845281546001600160a01b03908116825260018301549382019390935260028201549381018490526003909101549182166060820152600160a01b90910460ff16151560808201529042116105ef5760405162461bcd60e51b815260206004820152602160248201527f596f75206d75737420746f20617474656e6420796f7572206c6f636b74696d656044820152602160f81b606482015260840161052d565b80516060820151602083015160405163a9059cbb60e01b81526001600160a01b039283166004820152602481019190915291169063a9059cbb90604401602060405180830381600087803b15801561064657600080fd5b505af115801561065a573d6000803e3d6000fd5b505050506040513d601f19601f8201168201806040525081019061067e9190611ef4565b5060608101516001600160a01b031660009081526006602052604090206106a59085611677565b505050600082815260046020526040812080546001600160a01b0319168155600181018290556002810191909155600301805474ffffffffffffffffffffffffffffffffffffffffff19169055506106fd6001600055565b50565b61070861161d565b600082815260046020526040902060038101548391906001600160a01b031633146107755760405162461bcd60e51b815260206004820152601b60248201527f4e4f20414354495645204c4f434b204f52204e4f54204f574e45520000000000604482015260640161052d565b600083116107b35760405162461bcd60e51b815260206004820152600b60248201526a16915493c8105353d5539560aa1b604482015260640161052d565b600084815260046020526040902060018101546107d09085611683565b600182015580546107ec906001600160a01b031633308761168f565b5050506107f96001600055565b5050565b6001546001600160a01b031633146108575760405162461bcd60e51b815260206004820181905260248201527f4f776e61626c653a2063616c6c6572206973206e6f7420746865206f776e6572604482015260640161052d565b600355565b600061086661161d565b600084116108a45760405162461bcd60e51b815260206004820152600b60248201526a16915493c8105353d5539560aa1b604482015260640161052d565b6001600160a01b0385166108fa5760405162461bcd60e51b815260206004820152600a60248201527f5a45524f20544f4b454e00000000000000000000000000000000000000000000604482015260640161052d565b4283116109495760405162461bcd60e51b815260206004820152601760248201527f554e4c4f434b2054494d4520494e205448452050415354000000000000000000604482015260640161052d565b6402540be40083106109b75760405162461bcd60e51b815260206004820152603160248201527f494e56414c494420554e4c4f434b2054494d452c204d55535420424520554e49604482015270582054494d4520494e205345434f4e445360781b606482015260840161052d565b6109c18587611704565b610a0d5760405162461bcd60e51b815260206004820152600860248201527f4e4f542050414952000000000000000000000000000000000000000000000000604482015260640161052d565b610a156118ac565b600354341115610a3d57610a3d33610a386003543461191790919063ffffffff16565b611923565b6040805160a0810182526001600160a01b0380881682526020820187905291810185905290831660608201526001608082015260078054906000610a8083611f2c565b909155506000818152600460209081526040808320855181546001600160a01b0319166001600160a01b03918216178255868401516001830155868301516002830155606087015160039092018054608089015193831674ffffffffffffffffffffffffffffffffffffffffff1990911617600160a01b93151593909302929092179091558716835260069091529020909250610b1d908361195e565b506001600160a01b038616600081815260056020908152604082208054600181018255908352912001839055610b559033308861168f565b60088054906000610b6583611f2c565b919050555050610b756001600055565b95945050505050565b6000610b8861161d565b60008411610bc65760405162461bcd60e51b815260206004820152600b60248201526a16915493c8105353d5539560aa1b604482015260640161052d565b428311610c155760405162461bcd60e51b815260206004820152601760248201527f554e4c4f434b2054494d4520494e205448452050415354000000000000000000604482015260640161052d565b6402540be4008310610c835760405162461bcd60e51b815260206004820152603160248201527f494e56414c494420554e4c4f434b2054494d452c204d55535420424520554e49604482015270582054494d4520494e205345434f4e445360781b606482015260840161052d565b610c8b6118ac565b600354341115610cae57610cae33610a386003543461191790919063ffffffff16565b60078054906000610cbe83611f2c565b909155506040805160a0810182526001600160a01b0380891682526020808301898152838501898152888416606086018181526000608088018181528a825260048752898220985189549089166001600160a01b03199091161789559451600189015592516002880155516003909601805493511515600160a01b0274ffffffffffffffffffffffffffffffffffffffffff19909416969095169590951791909117909255918152600690915220909150610d79908261195e565b506001600160a01b038516600081815260056020908152604080832080546001810182559084529190922001839055516323b872dd60e01b8152336004820152306024820152604481018690526323b872dd90606401602060405180830381600087803b158015610de957600080fd5b505af1158015610dfd573d6000803e3d6000fd5b505050506040513d601f19601f82011682018060405250810190610e219190611ef4565b5060098054906000610e3283611f2c565b9190505550610e416001600055565b949350505050565b6001546001600160a01b03163314610ea35760405162461bcd60e51b815260206004820181905260248201527f4f776e61626c653a2063616c6c6572206973206e6f7420746865206f776e6572604482015260640161052d565b610ead600061196a565b565b6001600160a01b038116600090815260056020908152604091829020805483518184028101840190945280845260609392830182828015610f0f57602002820191906000526020600020905b815481526020019060010190808311610efb575b50505050509050919050565b610f2361161d565b600082815260046020526040902060038101548391906001600160a01b03163314610f905760405162461bcd60e51b815260206004820152601b60248201527f4e4f20414354495645204c4f434b204f52204e4f54204f574e45520000000000604482015260640161052d565b600084815260046020526040902060028101544211610ffb5760405162461bcd60e51b815260206004820152602160248201527f596f75206d75737420746f20617474656e6420796f7572206c6f636b74696d656044820152602160f81b606482015260840161052d565b8054600382015460405163a9059cbb60e01b81526001600160a01b0391821660048201526024810187905291169063a9059cbb90604401602060405180830381600087803b15801561104c57600080fd5b505af1158015611060573d6000803e3d6000fd5b505050506040513d601f19601f820116820180604052508101906110849190611ef4565b5060018101546110949085611917565b600182018190556107ec5760038101546001600160a01b031660009081526006602052604090206110c59086611677565b50600085815260046020526040812080546001600160a01b0319168155600181018290556002810191909155600301805474ffffffffffffffffffffffffffffffffffffffffff191690555050506107f96001600055565b600082815260046020526040902060038101548391906001600160a01b0316331461118a5760405162461bcd60e51b815260206004820152601b60248201527f4e4f20414354495645204c4f434b204f52204e4f54204f574e45520000000000604482015260640161052d565b6001600160a01b0383166111e05760405162461bcd60e51b815260206004820152600e60248201527f5a45524f204e4557204f574e4552000000000000000000000000000000000000604482015260640161052d565b600084815260046020908152604080832060038101546001600160a01b0316845260069092529091206112139086611677565b506001600160a01b0384166000908152600660205260409020611236908661195e565b5060030180546001600160a01b0319166001600160a01b039490941693909317909255505050565b6040517f70a082310000000000000000000000000000000000000000000000000000000081523060048201526000906001600160a01b038316906370a082319060240160206040518083038186803b1580156112b957600080fd5b505afa1580156112cd573d6000803e3d6000fd5b505050506040513d601f19601f820116820180604052508101906104b69190611f47565b6112f961161d565b600082815260046020526040902060038101548391906001600160a01b031633146113665760405162461bcd60e51b815260206004820152601b60248201527f4e4f20414354495645204c4f434b204f52204e4f54204f574e45520000000000604482015260640161052d565b4283116113b55760405162461bcd60e51b815260206004820152601760248201527f554e4c4f434b2054494d4520494e205448452050415354000000000000000000604482015260640161052d565b6402540be40083106114235760405162461bcd60e51b815260206004820152603160248201527f494e56414c494420554e4c4f434b2054494d452c204d55535420424520554e49604482015270582054494d4520494e205345434f4e445360781b606482015260840161052d565b6000848152600460205260409020600281015484116114845760405162461bcd60e51b815260206004820152601a60248201527f4e4f5420494e4352454153494e4720554e4c4f434b2054494d45000000000000604482015260640161052d565b600201839055505060016000555050565b6001600160a01b03811660009081526006602052604081206104b6906119bc565b6001546001600160a01b031633146115105760405162461bcd60e51b815260206004820181905260248201527f4f776e61626c653a2063616c6c6572206973206e6f7420746865206f776e6572604482015260640161052d565b600280546001600160a01b0319166001600160a01b0392909216919091179055565b6001546001600160a01b0316331461158c5760405162461bcd60e51b815260206004820181905260248201527f4f776e61626c653a2063616c6c6572206973206e6f7420746865206f776e6572604482015260640161052d565b6001600160a01b0381166116085760405162461bcd60e51b815260206004820152602660248201527f4f776e61626c653a206e6577206f776e657220697320746865207a65726f206160448201527f6464726573730000000000000000000000000000000000000000000000000000606482015260840161052d565b6106fd8161196a565b60006104b383836119c6565b600260005414156116705760405162461bcd60e51b815260206004820152601f60248201527f5265656e7472616e637947756172643a207265656e7472616e742063616c6c00604482015260640161052d565b6002600055565b60006104b383836119f0565b60006104b38284611f60565b604080516001600160a01b0385811660248301528416604482015260648082018490528251808303909101815260849091019091526020810180517bffffffffffffffffffffffffffffffffffffffffffffffffffffffff166323b872dd60e01b1790526116fe908590611ae3565b50505050565b6000808390506000836001600160a01b031663e6a43905836001600160a01b0316630dfe16816040518163ffffffff1660e01b815260040160206040518083038186803b15801561175457600080fd5b505afa158015611768573d6000803e3d6000fd5b505050506040513d601f19601f8201168201806040525081019061178c9190611f78565b846001600160a01b031663d21220a76040518163ffffffff1660e01b815260040160206040518083038186803b1580156117c557600080fd5b505afa1580156117d9573d6000803e3d6000fd5b505050506040513d601f19601f820116820180604052508101906117fd9190611f78565b6040517fffffffff0000000000000000000000000000000000000000000000000000000060e085901b1681526001600160a01b0392831660048201529116602482015260440160206040518083038186803b15801561185b57600080fd5b505afa15801561186f573d6000803e3d6000fd5b505050506040513d601f19601f820116820180604052508101906118939190611f78565b6001600160a01b03908116908616149250505092915050565b6003543410156118fe5760405162461bcd60e51b815260206004820152601460248201527f4665657320617265206e6f7420656e6f75676821000000000000000000000000604482015260640161052d565b600254600354610ead916001600160a01b031690611923565b60006104b38284611f95565b6040516001600160a01b0383169082156108fc029083906000818181858888f19350505050158015611959573d6000803e3d6000fd5b505050565b60006104b38383611bc8565b600180546001600160a01b038381166001600160a01b0319831681179093556040519116919082907f8be0079c531659141344cd1fd0a4f28419497f9722a3daafe3b4186f6b6457e090600090a35050565b60006104b6825490565b60008260000182815481106119dd576119dd611fac565b9060005260206000200154905092915050565b60008181526001830160205260408120548015611ad9576000611a14600183611f95565b8554909150600090611a2890600190611f95565b9050818114611a8d576000866000018281548110611a4857611a48611fac565b9060005260206000200154905080876000018481548110611a6b57611a6b611fac565b6000918252602080832090910192909255918252600188019052604090208390555b8554869080611a9e57611a9e611fc2565b6001900381819060005260206000200160009055905585600101600086815260200190815260200160002060009055600193505050506104b6565b60009150506104b6565b6000611b38826040518060400160405280602081526020017f5361666545524332303a206c6f772d6c6576656c2063616c6c206661696c6564815250856001600160a01b0316611c179092919063ffffffff16565b8051909150156119595780806020019051810190611b569190611ef4565b6119595760405162461bcd60e51b815260206004820152602a60248201527f5361666545524332303a204552433230206f7065726174696f6e20646964206e60448201527f6f74207375636365656400000000000000000000000000000000000000000000606482015260840161052d565b6000818152600183016020526040812054611c0f575081546001818101845560008481526020808220909301849055845484825282860190935260409020919091556104b6565b5060006104b6565b6060610e41848460008585600080866001600160a01b03168587604051611c3e9190612004565b60006040518083038185875af1925050503d8060008114611c7b576040519150601f19603f3d011682016040523d82523d6000602084013e611c80565b606091505b5091509150611c9187838387611c9c565b979650505050505050565b60608315611d08578251611d01576001600160a01b0385163b611d015760405162461bcd60e51b815260206004820152601d60248201527f416464726573733a2063616c6c20746f206e6f6e2d636f6e7472616374000000604482015260640161052d565b5081610e41565b610e418383815115611d1d5781518083602001fd5b8060405162461bcd60e51b815260040161052d9190612020565b6001600160a01b03811681146106fd57600080fd5b60008060408385031215611d5f57600080fd5b8235611d6a81611d37565b946020939093013593505050565b600060208284031215611d8a57600080fd5b5035919050565b60008060408385031215611da457600080fd5b50508035926020909101359150565b600080600080600060a08688031215611dcb57600080fd5b8535611dd681611d37565b94506020860135611de681611d37565b935060408601359250606086013591506080860135611e0481611d37565b809150509295509295909350565b60008060008060808587031215611e2857600080fd5b8435611e3381611d37565b935060208501359250604085013591506060850135611e5181611d37565b939692955090935050565b600060208284031215611e6e57600080fd5b8135611e7981611d37565b9392505050565b6020808252825182820181905260009190848201906040850190845b81811015611eb857835183529284019291840191600101611e9c565b50909695505050505050565b60008060408385031215611ed757600080fd5b823591506020830135611ee981611d37565b809150509250929050565b600060208284031215611f0657600080fd5b81518015158114611e7957600080fd5b634e487b7160e01b600052601160045260246000fd5b6000600019821415611f4057611f40611f16565b5060010190565b600060208284031215611f5957600080fd5b5051919050565b60008219821115611f7357611f73611f16565b500190565b600060208284031215611f8a57600080fd5b8151611e7981611d37565b600082821015611fa757611fa7611f16565b500390565b634e487b7160e01b600052603260045260246000fd5b634e487b7160e01b600052603160045260246000fd5b60005b83811015611ff3578181015183820152602001611fdb565b838111156116fe5750506000910152565b60008251612016818460208701611fd8565b9190910192915050565b602081526000825180602084015261203f816040850160208701611fd8565b601f01601f1916919091016040019291505056fea2646970667358221220372aaf42235efede7be644ee63cc9eeb678740cb97a764c04a381d2c0d1185a064736f6c63430008090033",
  "linkReferences": {},
  "deployedLinkReferences": {}
}